:100000000C9407200C9434200C9434200C9434204D
:100010000C9434200C9434200C9434200C94342010
:100020000C9434200C9434200C9434200C94342000
:100030000C9434200C94F7FD0C9434200C94342050
:100040000C9434200C949E920C9434200C94342004
:100050000C9434200C9434200C946D9C0C944CFA29
:100060000C9434200C9479390C9434200C94342062
:100070000C9434200C9434200C9434200C943420B0
:100080000C9434200C9434200C9434200C943420A0
:100090000C9434200C9434200C9434200C94C2F230
:1000A0000C9434200C9434200C9434200C94342080
:1000B0000C9434200C9434200C9434200C94342070
:1000C0000C9434200C9434200C9434200C94342060
:1000D0000C9434200C9434200C9434200C94342050
:1000E0000C943420084AD73B3BCE016E84BCBFFD44
:1000F000C12F3D6C74319ABD56833DDA3D00C77FF8
:1001000011BED9E4BB4C3E916BAAAABE0000008090
:100110003F05A84CCDB2D44EB93836A9020C50B91F
:10012000918688083CA6AAAA2ABE000000803F4DFE
:10013000383420582059205A20450043616E6E6F94
:100140007420656E746572207375626469723A20FA
:10015000004D3234004D3233202573006175746FC9
:1001600025692E67006572726F72207772697469F3
:100170006E6720746F2066696C65004E6F74205343
:1001800044207072696E74696E67002F00534420BA
:100190007072696E74696E67206279746520002ED2
:1001A0000044656C6574696F6E206661696C656496
:1001B0002C2046696C653A200046696C65206465B0
:1001C0006C657465643A002E006F70656E20666120
:1001D000696C65642C2046696C653A200057726929
:1001E00074696E6720746F2066696C653A20002E12
:1001F000006F70656E206661696C65642C204669CD
:100200006C653A20002E006F70656E206661696C27
:1002100065642C2046696C653A200046696C65204F
:1002200073656C6563746564002053697A653A2070
:100230000046696C65206F70656E65643A20002E1B
:10024000006F70656E206661696C65642C2046697C
:100250006C653A20004E6F77206672657368206681
:10026000696C653A20004E6F7720646F696E672075
:1002700066696C653A20002220706F73002220703E
:100280006172656E743A2200535542524F5554497B
:100290004E452043414C4C207461726765743A228C
:1002A00000747279696E6720746F2063616C6C20D2
:1002B0007375622D67636F64652066696C65732072
:1002C0007769746820746F6F206D616E79206C653A
:1002D00076656C732E204D4158206C6576656C20D8
:1002E00069733A0053442063617264206F6B006F3E
:1002F00070656E526F6F74206661696C656400761C
:100300006F6C756D652E696E6974206661696C65C8
:100310006400534420696E6974206661696C002032
:100320005A005A2D50726F6265204F66667365746D
:1003300020286D6D293A0046696C616D656E7420E8
:1003400073657474696E67733A2044697361626C93
:100350006564002020204D3230302054312044008C
:100360002020204D32303020440046696C616D659C
:100370006E742073657474696E67733A002044006C
:100380002049002020204D33303120500050494476
:100390002073657474696E67733A00205A0020599F
:1003A0000020204D323036205800486F6D65206F98
:1003B000666673657420286D6D293A00204500201B
:1003C0005A0020580020420020540020204D323096
:1003D00035205300416476616E63656420766172F6
:1003E0006961626C65733A20533D4D696E206665A4
:1003F00065647261746520286D6D2F73292C2054FB
:100400003D4D696E2074726176656C206665656429
:100410007261746520286D6D2F73292C20423D6D0B
:10042000696E696D756D207365676D656E74207496
:10043000696D6520286D73292C20583D6D617869A0
:100440006D756D205859206A65726B20286D6D2F6F
:1004500073292C20205A3D6D6178696D756D205A85
:10046000206A65726B20286D6D2F73292C20204522
:100470003D6D6178696D756D2045206A65726B20F0
:10048000286D6D2F73290020540020204D32303408
:10049000205300416363656C65726174696F6E3AE5
:1004A00020533D616363656C65726174696F6E2C86
:1004B00020543D7265747261637420616363656C7E
:1004C00065726174696F6E00204500205A002059E2
:1004D0000020204D3230312058004D6178696D7513
:1004E0006D20416363656C65726174696F6E20286D
:1004F0006D6D2F7332293A00204500205A00205993
:100500000020204D3230332058004D6178696D75E0
:100510006D2066656564726174657320286D6D2F4A
:1005200073293A00204500205A0020590020204D10
:1005300039322058005374657073207065722075CD
:100540006E69743A0048617264636F646564204444
:10055000656661756C742053657474696E67732089
:100560004C6F61646564004572726F7220777269C6
:1005700074696E6720746F20454550524F4D2100BD
:100580004572726F723A006563686F3A0053544F58
:10059000505045442E20005072696E74657220736D
:1005A000746F707065642064756520746F20657267
:1005B000726F72732E2046697820746865206572A8
:1005C000726F7220616E6420757365204D39393900
:1005D00020746F20726573746172742E20285465C4
:1005E0006D706572617475726520697320726573D0
:1005F00065742E2053657420697420616674657279
:100600002072657374617274696E6729004B494C7E
:100610004C45442E20005072696E746572206861EA
:100620006C7465642E206B696C6C28292063616C86
:100630006C656421006F6B00526573656E643A20CF
:10064000002200556E6B6E6F776E20636F6D6D616B
:100650006E643A202200486F74656E64206F66668F
:10066000736574733A004368616E67652066696CF0
:10067000616D656E74005A204F6666736574203A2A
:1006800020007A5F6D61783A20007A5F6D696E3A7A
:1006900020005A204F6666736574005A204F6666C4
:1006A000736574206F6B006C636420636F6E74728B
:1006B0006173742076616C75653A2000486F7465CB
:1006C0006E64206F6666736574733A007A5F6D615D
:1006D000783A20007A5F6D696E3A2000795F6D612B
:1006E000783A2000795F6D696E3A2000785F6D611D
:1006F000783A2000785F6D696E3A2000205A3A00FF
:1007000020593A0020436F756E7420583A2000201B
:10071000453A00205A3A0020593A00583A004649D2
:10072000524D574152455F4E414D453A4D61726CB5
:10073000696E2056313B20537072696E7465722F5A
:100740006772626C206D617368757020666F7220CD
:1007500067656E36204649524D574152455F5552A6
:100760004C3A68747470733A2F2F676974687562B5
:100770002E636F6D2F4D61726C696E4669726D7775
:100780006172652F4D61726C696E2050524F544FEB
:10079000434F4C5F56455253494F4E3A312E30200D
:1007A0004D414348494E455F545950453A4D656E59
:1007B00064656C2045585452554445525F434F552B
:1007C0004E543A3220555549443A3030303030306A
:1007D00030302D303030302D303030302D30303022
:1007E000302D3030303030303030303030300A0062
:1007F0004D656E64656C204F66662E004D656E64B7
:10080000656C2072656164792E0042656420646FB6
:100810006E652E0020423A0020453A00543A0042CC
:1008200065642048656174696E672E00486561746F
:10083000696E6720646F6E652E0020573A00204570
:100840003A00543A0048656174696E672E2E2E0096
:100850002042403A0020403A00202F003A00205425
:1008600000202F0020423A00202F006F6B20543AC6
:10087000002569206D696E2C202569207365630051
:10088000456E642066696C65206C6973740042650E
:1008900067696E2066696C65206C697374004E6FC1
:1008A000206D6F76652E004D656E64656C207265F7
:1008B0006164792E00526573756D696E6720707280
:1008C000696E74005761697420666F722075736574
:1008D000722E2E2E00536C6565702E2E2E00FFFF9B
:1008E000FF0080A24300002043000048430000A016
:1008F000400000A040000000400000000000000098
:1009000000000000000000000000000000000000E7
:10091000000080A2430000204300004843256920D6
:10092000686F757273202569206D696E75746573C3
:1009300000446F6E65207072696E74696E67206620
:10094000696C650053544F505045442E200050723E
:10095000696E7465722073746F707065642064755D
:100960006520746F206572726F72732E20466978ED
:1009700020746865206572726F7220616E642075E4
:100980007365204D39393920746F20726573746135
:1009900072742E202854656D70657261747572656D
:1009A0002069732072657365742E20536574206905
:1009B0007420616674657220726573746172746903
:1009C0006E6729004E6F204C696E65204E756D6212
:1009D0006572207769746820636865636B73756DF1
:1009E0002C204C617374204C696E653A20004E6F68
:1009F00020436865636B73756D2077697468206C3C
:100A0000696E65206E756D6265722C204C61737421
:100A1000204C696E653A2000636865636B73756D81
:100A2000206D69736D617463682C204C6173742050
:100A30004C696E653A20004C696E65204E756D629A
:100A40006572206973206E6F74204C617374204C42
:100A5000696E65204E756D6265722B312C204C617C
:100A60007374204C696E653A20004D31313000447A
:100A70006F6E6520736176696E672066696C652E9E
:100A8000006F6B004D3239002020506C616E6E6536
:100A90007242756666657242797465733A20002009
:100AA00046726565204D656D6F72793A20004D6123
:100AB00072203132203230313500436F6D70696CF5
:100AC00065643A2000286E6F6E652C20646566614F
:100AD000756C7420636F6E6669672900207C204105
:100AE0007574686F723A20004D6172203132203285
:100AF0003031352031353A34343A313800204C61C8
:100B0000737420557064617465643A2000312E302E
:100B10002E32004D61726C696E0020536F667477DF
:100B20006172652052657365740020576174636853
:100B3000646F67205265736574002042726F776E30
:100B4000206F757420526573657400204578746554
:100B5000726E616C20526573657400506F776572B8
:100B60005570007374617274002200656E71756552
:100B7000696E6720220020746F6F206C6F6E672093
:100B8000657874727573696F6E2070726576656EC4
:100B90007465640020636F6C64206578747275738B
:100BA000696F6E2070726576656E746564007C3C5A
:100BB0003E5E2B3D3F2F5B5D3B2C2A225C00453087
:100BC0003A20005A3A2000593A2000583A20004D65
:100BD00053312C4D53322050696E730A0024F404B3
:100BE000D9201BC40C5C0E9804C4095F0265077110
:100BF00001F405F900FB04B30048048700C1036950
:100C0000005803550003034500BE023A0084023138
:100C10000053022A002902250004022000E4011CDE
:100C200000C8011900AF01170098011400840113D6
:100C300000710110006101100051010E0043010D0F
:100C40000036010B002B010B0020010B00150109E0
:100C5000000C01090003010800FB000800F3000874
:100C600000EB000700E4000600DE000600D80006E6
:100C700000D2000600CC000500C7000500C2000538
:100C800000BD000400B9000400B5000400B1000478
:100C900000AD000400A9000400A5000300A20003A9
:100CA000009F0004009B00030098000300950002D1
:100CB0000093000300900003008D0002008B0003EE
:100CC0000088000200860002008400030081000208
:100CD000007F0002007D0002007B0002007900021C
:100CE000007700010076000200740002007200012B
:100CF00000710002006F0002006D0001006C000234
:100D0000006A00010069000200670001006600013E
:100D10000065000100640002006200010061000142
:100D200000600001005F0002005D0001005C000146
:100D3000005B0001005A0001005900010058000149
:100D40000057000100560001005500010054000149
:100D50000053000000530001005200010051000147
:100D600000500001004F0001004E0000004E000145
:100D7000004D0001004C0001004B0000004B000141
:100D8000004A00010049000100480000004800013D
:100D90000047000100460000004600010045000039
:100DA0000045000100440001004300000043000131
:100DB000004200000042000100410000004100012B
:100DC00000400001003F0000003F0001003E000025
:100DD000003E0001003D0000003D0001003C00001D
:100DE000003C0000003C0001003B0000003B000113
:100DF000003A0000003A000100390000003900010B
:100E00000038000000380000003800010037000002
:100E100000370001003600000036000000360001F7
:100E200000350000003500000035000100340000EE
:100E300000340000003400010033000000330000E3
:100E400000330001003200000032000000320001D7
:100E500000310000003100000031000100300000CE
:100E60000030000000300001002F0000002F0000C3
:100E7000002F0000002F0001002E0000002E0000B7
:100E8000002E0001002D0000002D0000002D0000AC
:100E9000002D0001002C0000002C0000002C0000A0
:100EA000002C0001002B0000002B0000002B000094
:100EB000002B0001002A0000002A0000002A000088
:100EC000002A00010029000000290000002900007C
:100ED000002900000029000100280000002800006F
:100EE0000028000000280000002800010027000062
:100EF0000027000000270000002700000027000155
:100F00000026000000260000002600000026000049
:100F1000002600010025000000250000002500003B
:100F2000002500000025000000250001002400002D
:100F30000024000000240000002400000024000120
:100F40000023000000230000002300000023000015
:100F50000023000000230000002300010022000005
:100F600000220000002200000022000000220000F9
:100F700000220001002100000021000000210000EB
:100F800000210000002100000021000000210001DC
:100F900000200000002000000020000000200000D1
:100FA00000200000002000000020000000200001C0
:100FB000001F0000001F0000001F0000001F0000B5
:100FC000001F0000001F0000001F0001001E0000A5
:100FD000001E0000001E0000001E00000024F4D4CB
:100FE0003050C38E20C2A24017828B7011127A91AA
:100FF0000D816CD90AA861E108C7586607615143A1
:10100000061E4B5D05C145A7041A411104093D9810
:1010100003713931034036DB0265339102D4305419
:1010200002802E1D02632CEE01752AC501B028A096
:1010300001102781018F2564012B244B01E022340C
:1010400001AC211F018D200D01801FFC00841EEDCD
:1010500000971DDF00B81CD200E61BC600201BBC99
:1010600000641AB200B219A8000A19A0006A1899FF
:1010700000D117910040178B00B516840031167E01
:1010800000B31579003A157300C7146F0058146A3D
:1010900000EE1366008813630025135E00C7125B21
:1010A000006C12570015125400C111510070114FFD
:1010B0000021114B00D61049008D10470046104406
:1010C0000002104200C00F4000800F3E00420F3C63
:1010D00000060F3B00CB0E3800930E37005C0E3538
:1010E00000270E3400F30D3200C10D3100900D3099
:1010F00000600D2E00320D2D00050D2C00D90C2B9B
:1011000000AE0C2900850C29005C0C2700350C274B
:10111000000E0C2600E80B2400C40B2400A00B23B7
:10112000007D0B23005A0B2100390B2100180B20E6
:1011300000F80A1F00D90A1E00BB0A1E009D0A1DE6
:1011400000800A1D00630A1C00470A1B002C0A1BB2
:1011500000110A1A00F7091A00DD091900C409195B
:1011600000AB091900920917007B091800630917E1
:10117000004C09160036091600200916000A091548
:1011800000F5081500E0081400CC081400B8081495
:1011900000A4081400900813007D0812006B0813C7
:1011A00000580812004608120034081100230811E4
:1011B000001208110001081100F0071000E00710EC
:1011C00000D0071000C0071000B0070F00A10710E3
:1011D0000091070E0083070F0074070F0065070ECC
:1011E0000057070E0049070E003B070D002E070EA3
:1011F0000020070D0013070D0006070D00F9060C6F
:1012000000ED060D00E0060C00D4060C00C8060C2C
:1012100000BC060C00B0060C00A4060B0099060CDE
:10122000008D060B0082060B0077060B006C060B88
:101230000061060A0057060B004C060A0042060A27
:101240000038060A002E060A0024060A001A060ABA
:10125000001006090007060A00FD050900F405094B
:1012600000EB050900E2050900D9050900D00509D0
:1012700000C7050900BE050900B5050800AD050851
:1012800000A50509009C050800940508008C0508C8
:1012900000840508007C050800740508006C05073B
:1012A00000650508005D050700560508004E0507A6
:1012B000004705070040050800380507003105070D
:1012C000002A050700230507001C05060016050770
:1012D000000F0507000805060002050700FB0406CD
:1012E00000F5040700EE040600E8040600E2040727
:1012F00000DB040600D5040600CF040600C904067E
:1013000000C3040600BD040600B7040600B10405CE
:1013100000AC040600A6040600A00405009B040619
:101320000095040500900406008A04050085040564
:1013300000800406007A04050075040500700405A9
:10134000006B04050066040500610405005C0405EB
:101350000057040500520405004D0405004804052B
:1013600000430405003E0404003A0405003504056A
:1013700000300404002C04050027040400230405A5
:10138000001E0404001A04040016040500110404DD
:10139000000D040400090405000404040000040412
:1013A00000FC030400F8030400F4030400F0030449
:1013B00000EC030400E8030400E4030400E0030479
:1013C00000DC030400D8030400D4030400D00304A9
:1013D00000CC030400C8030300C5030300656E646A
:1013E00073746F7073206869743A205A00205A3AF7
:1013F00000656E6473746F7073206869743A205965
:101400000020593A00656E6473746F7073206869C8
:10141000743A20580020583A00656E6473746F70F7
:1014200073206869743A20004572723A204D415821
:1014300054454D5020424544004865617465642020
:10144000626564207377697463686564206F66669B
:101450002E204D415854454D502074726967676580
:10146000726564202121004572723A204D494E5424
:10147000454D50003A20457874727564657220734A
:1014800077697463686564206F66662E204D494EE7
:1014900054454D50207472696767657265642021F8
:1014A000004572723A204D415854454D50003A2043
:1014B00045787472756465722073776974636865C2
:1014C00064206F66662E204D415854454D5020745F
:1014D000726967676572656420212100202D2049AB
:1014E0006E76616C696420657874727564657220CB
:1014F0006E756D62657220210070012C01900127CC
:1015000001B0012201C0011D01F0011801100213F8
:101510000130020E016002090190020401C002FFC5
:10152000000003FA004003F5008003F000D003EB55
:10153000002004E6007004E100E004DC004005D770
:1015400000C005D2004006CD00D006C8008007C309
:10155000003008BE00F008B900C009B400B00AAFFE
:1015600000B00BAA00D00CA500000EA000500F9BED
:1015700000C01096005012910000148C00C0158716
:1015800000B0178200B0197D00D01B7800001E73D8
:101590000040206E0090226900F024640040275F24
:1015A0000090295A00E02B5500102E500020304B9F
:1015B0000010324600E033410090353C00103737D0
:1015C0000070383200A0392D00B03A2800A03B232B
:1015D00000603C1E00103D1900903D1400103E0FAD
:1015E00000703E0A00C03E0500003F000050494424
:1015F000204175746F74756E652066696E697368D5
:101600006564212050757420746865206C61737462
:10161000204B702C204B6920616E64204B6420634A
:101620006F6E7374616E74732066726F6D20616289
:101630006F766520696E746F20436F6E666967759B
:10164000726174696F6E2E68005049442041757450
:101650006F74756E65206661696C656421207469BC
:101660006D656F75740020403A006F6B20543A002E
:101670006F6B20423A00504944204175746F747575
:101680006E65206661696C6564212054656D7065C6
:1016900072617475726520746F6F20686967680085
:1016A000204B643A2000204B693A2000204B703ACE
:1016B000200020436C61737369632050494420000B
:1016C0002054753A2000204B753A2000206D617837
:1016D0003A2000206D696E3A200020643A200020F4
:1016E000626961733A200000000000000000000001
:1016F0000000007FFFE0000000000000000000008C
:1017000000007000E0000000000000000000000089
:1017100000630C60000000000000000000000000FA
:10172000470E200000000000000000000000004FF5
:101730000F200000000000000000000000005F0F0C
:10174000A00000000000000000000000005E07A0F4
:101750007F80003FC000000000410400406020FB8B
:10176000C00079E00000000020820040F020F3C0BB
:101770000076E00000000020820040F020EBC00076
:101780007EE0000000004104004060207B80003DBE
:10179000C0000000008208005E07A07B80003BC004
:1017A000000000010410005F0FA0FBC00077E00004
:1017B0000000010410004F0F20FBC00070E000008B
:1017C0000000820800470E20FFC0007FE0000000FC
:1017D00000410400630C603F00001F800000000017
:1017E0000000007000E01E00000F0000000001FF7C
:1017F000FF807FFFE00C0000060000000001FFFFFB
:101800008000000000000000000000000000000058
:101810007FFFE000000000000000000000000070FA
:1018200000E000000000000000000000000061F87F
:101830006000000000000000000000000041F820EF
:1018400000000000000000000000000040F0200048
:1018500000000000000000000000004060200000C8
:10186000000000000000000000005801A07F800080
:101870003FC0000000004104005C63A0FBC0007991
:10188000E0000000002082005EF7A0F3C00076E0D8
:10189000000000002082005EF7A0EBC0007EE000A8
:1018A0000000004104005C63A07B80003DC000009C
:1018B00000008208005801A07B80003BC0000000AF
:1018C00001041000406020FBC00077E00000000130
:1018D00004100040F020FBC00070E0000000008217
:1018E000080041F820FFC0007FE000000000410434
:1018F0000061F8603F00001F800000000000000051
:101900007000E01E00000F0000000001FFFF807F5C
:10191000FFE00C0000060000000001FFFF80000057
:101920000059002D2D3A2D2D00B02000B020001FB1
:10193000FFFFFFFFFFFF600000000001FF4000000D
:10194000000000FF8000000000007F83CF00000C3B
:10195000303F87FF80000C301F867980000C000F1D
:101960008C30C7838C30E78C30CFC7CC31F38C30D0
:10197000DCECEC33B98C30D86C6C33198C30D06C17
:101980000C33198C30D86C0C33198C30DC6C0E3B5A
:10199000198C30CF7C079F198C30C77C038F19407E
:1019A000000000000002600000000000061FFFFFB2
:1019B000FFFFFFF84D323100496E69742E20534409
:1019C0002063617264004E6F20534420636172642F
:1019D000004D3231004368616E67652053442063D7
:1019E000617264005072696E742066726F6D20536C
:1019F000440053746F70207072696E740052657386
:101A0000756D65207072696E740050617573652024
:101A10007072696E7400436F6E74726F6C005072F6
:101A200065706172650054756E6500496E666F2061
:101A300073637265656E005072696E742066726FB2
:101A40006D205344005072696E742066726F6D2071
:101A5000534400F92E2E00F85265667265736800D3
:101A60004D61696E004D3234004D323320257300D4
:101A70004D383420582059205A204500526573743F
:101A80006F7265206661696C73616665004C4344E2
:101A900020636F6E74726173740046696C616D656A
:101AA0006E74004D6F74696F6E0054656D70657271
:101AB0006174757265004D61696E004C434420632A
:101AC0006F6E74726173740046696C2E2044696194
:101AD0002E20320046696C2E204469612E2032008F
:101AE00046696C2E204469612E20310046696C2EB7
:101AF000204469612E2031004F6666004F6E200041
:101B00004F6666004F6E20004520696E206D6DB3F4
:101B100000436F6E74726F6C004573746570732F41
:101B20006D6D004573746570732F6D6D005A73741D
:101B30006570732F6D6D005A73746570732F6D6DC2
:101B4000005973746570732F6D6D005973746570EF
:101B5000732F6D6D005873746570732F6D6D005821
:101B600073746570732F6D6D00412D7265747261B1
:101B7000637400412D7265747261637400416D611C
:101B800078206500416D6178206500416D617820A5
:101B90007A00416D6178207A00416D61782079008A
:101BA000416D6178207900416D6178207800416D48
:101BB00061782078005654726176206D696E005607
:101BC00054726176206D696E00566D696E00566DB7
:101BD000696E00566D6178206500566D61782065EC
:101BE00000566D6178207A00566D6178207A005633
:101BF0006D6178207900566D6178207900566D61AD
:101C000078207800566D617820780056652D6A65D9
:101C1000726B0056652D6A65726B00567A2D6A6587
:101C2000726B00567A2D6A65726B005678792D6A50
:101C300065726B005678792D6A65726B004163633B
:101C4000656C00416363656C00436F6E74726F6C0A
:101C500000507265686561742041425320636F6E65
:101C600066005072656865617420504C4120636F56
:101C70006E66005049442D43005049442D430050A6
:101C800049442D44005049442D44005049442D49B5
:101C9000005049442D49005049442D5000504944BA
:101CA0002D500020FF20466163740020FF20466114
:101CB000637400206D61783A2000206D61783A20CD
:101CC00000206D696E3A2000206D696E3A20004F49
:101CD0006666004F6E20004F6666004F6E20004122
:101CE00075746F74656D700046616E207370656504
:101CF000640046616E20737065656400426564002F
:101D0000426564004E6F7A7A6C652032004E6F7ABD
:101D10007A6C652032004E6F7A7A6C65004E6F7A6D
:101D20007A6C6500436F6E74726F6C00426564007C
:101D3000426564004E6F7A7A6C65004E6F7A7A6CF9
:101D4000650046616E2073706565640046616E20B3
:101D500073706565640054656D7065726174757249
:101D6000650042656400426564004E6F7A7A6C6576
:101D7000004E6F7A7A6C650046616E2073706565FF
:101D8000640046616E2073706565640054656D7013
:101D900065726174757265004D6F76652061786952
:101DA00073004D38300053776974636820706F7723
:101DB0006572206F6E004D38310053776974636827
:101DC00020706F776572206F666600436F6F6C647A
:101DD0006F776E00507265686561742041425300F0
:101DE0005072656865617420504C410053657420E1
:101DF000686F6D65206F666673657473004732386F
:101E0000004175746F20686F6D65004D3834004473
:101E1000697361626C6520737465707065727300BC
:101E20004D61696E004D6F766520302E316D6D000D
:101E30004D6F766520316D6D004D6F7665203130C8
:101E40006D6D0050726570617265004578747275D1
:101E5000646572004D6F7665205A004D6F7665207F
:101E600059004D6F76652058004D6F76652061787A
:101E70006973004578747275646572005A00590080
:101E80005800507265686561742041425320426574
:101E90006400507265686561742041425320416C52
:101EA0006C005072656865617420414253203200B5
:101EB0005072656865617420414253203100507250
:101EC0006570617265005072656865617420504C80
:101ED0004120426564005072656865617420504C11
:101EE0004120416C6C005072656865617420504CF3
:101EF000412032005072656865617420504C412069
:101F0000310050726570617265004D3630300043AB
:101F100068616E67652066696C616D656E74004608
:101F20006C6F77203100466C6F77203100466C6F04
:101F300077203000466C6F77203000466C6F77005A
:101F4000466C6F770046616E20737065656400466D
:101F5000616E20737065656400426564004265646B
:101F6000004E6F7A7A6C652032004E6F7A7A6C651B
:101F70002032004E6F7A7A6C65004E6F7A7A6C650B
:101F8000005370656564005370656564004D616958
:101F90006E004D33303020533635392050323030DA
:101FA0000A4D33303020533639382050323030002B
:101FB00000060900FE06018902FE20FFFE07FE065C
:101FC000FE00000006000701060606020080808071
:101FD000800080030303060103A0A0A005070706F5
:101FE00000FF5050F850F850500509090600FE2037
:101FF00070A8A07028A870200608080600FF40A856
:102000004810204854080507070600FF60909060BC
:102010009890680103030602038080800207070688
:1020200002FF408080808080400207070602FF8018
:102030004040404040800505050600008850F850AB
:10204000880505050600002020F82020020404066B
:1020500002FEC0404080050101060002F8020202B3
:10206000060200C0C00406060601001010204080D1
:1020700080040606060100609090909060030606BA
:1020800006010040C0404040E00406060601006032
:1020900090102040F0040606060100F020601010A9
:1020A000E005060606000010305090F81004060601
:1020B000060100F080E01010E00406060601006052
:1020C00080E0909060040606060100F010102040A9
:1020D00040040606060100609060909060040606C9
:1020E000060100609090701060020505060200C0B5
:1020F000C000C0C00207070602FEC0C000C04040CA
:1021000080050505060000186080601805030306B9
:102110000001F800F8050505060000C0300830C0D1
:1021200004070706010060901060400040050606A5
:102130000600007090A8B08070050606060000201A
:102140005088F88888050606060000F088F0888820
:10215000F004060606010060908080906004060688
:10216000060100E090909090E0040606060100F061
:1021700080E08080F0040606060100F080E08080A8
:1021800080040606060100609080B0906004060698
:102190000601009090F0909090030606060100E082
:1021A00040404040E0050606060000381010109040
:1021B0006004060606010090A0C0A09090040606E8
:1021C0000601008080808080F005060606000088F9
:1021D000D8A8A8888804060606010090D0B0909080
:1021E0009005060606000070888888887004060638
:1021F000060100E09090E080800407070601FF6080
:102200009090D0B06010040606060100E09090E0C7
:10221000909004060606010060904020906005063C
:1022200006060000F82020202020040606060100F3
:10223000909090909060040606060100909090F0B7
:1022400060600506060600008888A8A8D8880506EC
:10225000060600008850202050880506060600006B
:10226000888850202020040606060100F010204037
:1022700080F0030606060100E080808080E004060E
:1022800006060100808040201010030606060100AB
:10229000E020202020E005030306000320508805ED
:1022A00001010600FEF80202020602048040040456
:1022B00004060100709090700406060601008080FC
:1022C000E09090E004040406010070808070040631
:1022D00006060100101070909070040404060100BE
:1022E00060B0C070040606060100205040E0404087
:1022F0000406060601FE6090907010600406060653
:1023000001008080E09090900306060601004000E6
:10231000C04040E00308080601FE200060202020A5
:10232000A0400406060601008080A0C0A09003061D
:1023300006060100C040404040E0050404060000DD
:10234000D0A8A888040404060100E090909004043A
:1023500004060100609090600406060601FEE0900D
:1023600090E080800406060601FE709090701010C8
:10237000040404060100A0D08080040404060100C7
:1023800070C030E00406060601004040E0405020E6
:1023900004040406010090909070040404060100F7
:1023A0009090606005040406000088A8A85004040A
:1023B00004060100906060900406060601FE9090FD
:1023C00090709060040404060100F02040F00307C0
:1023D0000706010020404080404020010707060218
:1023E000FF80808080808080030707060100804096
:1023F000402040408004020206010350A0FFFFFF7E
:10240000FFFFFFFFFFFFFFFFFFFFFFFFFFFFFFFFDC
:10241000FFFFFFFFFFFFFFFFFFFFFFFFFFFF0000CA
:10242000000600070106060602008000808080800A
:102430000406060601FF2070A0A07020050707060D
:1024400000FF304840F04040F8050505060000A8B0
:10245000508850A80506060600008850F820F8208D
:102460000107070602FF8080800080808004070744
:102470000601FF708060906010E003010106010515
:10248000A0060707060000788494A49484780305C6
:102490000506010160A06000E005050506000028B2
:1024A00050A05028040303060100F010100401019D
:1024B000060102F00607070600007884B4A4A4848D
:1024C00078040101060105F004030306010260908F
:1024D000600507070600FF2020F8202000F803050C
:1024E0000506010140A02040E0030505060101C0EA
:1024F000204020C0020202060204408004050506B6
:1025000001FF9090B0D08005060606000078E8E84C
:10251000682828010101060202800202020602FE6A
:10252000408003050506010140C04040E003050569
:1025300006010140A04000E0050505060000A0508E
:102540002850A00508080600FF40C04050703078B1
:10255000100508080600FF40C04050680810380504
:1025600008080600FFC0204030F03078100407074C
:10257000060100200020608090600507070600002B
:102580004020205070888805070706000010202092
:10259000507088880507070600002050205070887A
:1025A0008805070706000028502050708888050716
:1025B00007060000500020507088880507070600B5
:1025C000002050205070888805060606000078A07C
:1025D000F0A0A0B80408080601FE6090808090601A
:1025E00020400407070601004020F080E080F0044E
:1025F00007070601002040F080E080F0040707068E
:1026000001002050F080E080F00407070601005030
:1026100000F080E080F00307070601008040E04002
:102620004040E00307070601002040E0404040E052
:1026300003070706010040A0E0404040E003070711
:10264000060100A000E0404040E00506060600004C
:102650007048E848487004070706010050A090D071
:10266000B0909004070706010040206090909060B1
:10267000040707060100204060909090600407075F
:10268000060100205060909090600407070601004A
:1026900050A0609090906004070706010050006011
:1026A0009090906005050506000088502050880431
:1026B00008080601FF1070B0B0D0D0E08004070712
:1026C00006010040209090909060040707060100EA
:1026D00020409090909060040707060100205090E1
:1026E0009090906004070706010050009090909031
:1026F00060050707060000102088502020200406EF
:102700000606010080E09090E080040606060100C5
:102710006090A0A090A00407070601004020007070
:1027200090907004070706010020400070909070A0
:1027300004070706010020500070909070040707FE
:1027400006010050A000709090700406060601007B
:102750005000709090700407070601002050207010
:1027600090907005040406000070A8B07804060676
:102770000601FE70808070204004070706010040BB
:10278000200060B0C0700407070601002040006010
:10279000B0C07004070706010020500060B0C07090
:1027A000040606060100500060B0C070030707066B
:1027B0000100804000C04040E00307070601002000
:1027C0004000C04040E003070706010040A000C0F1
:1027D0004040E0030606060100A000C04040E004BF
:1027E000070706010030601070909060040707062C
:1027F000010050A000E090909004070706010040FF
:1028000020006090906004070706010020400060EF
:1028100090906004070706010020500060909060CF
:1028200004070706010050A00060909060040606AF
:10283000060100500060909060050505060000202C
:1028400000F8002004040406010070B0D0E0040782
:1028500007060100402000909090700407070601D1
:10286000002040009090907004070706010020505F
:102870000090909070040606060100500090909021
:10288000700409090601FE2040009090907090604D
:102890000408080601FE8080E09090E08080040833
:1028A000080601FE500090909070906000060900AC
:1028B000FE070199032B20FFFE08FE07FE00000023
:1028C00006000001070706020080808080800080EB
:1028D000030303060104A0A0A0050707060000509B
:1028E00050F850F850500507070600002070A070FF
:1028F00028702005070706000048A8502050A8901F
:1029000005070706000040A0A040A8906801030347
:1029100006020480808003070706010020408080B3
:1029200080402003070706010080402020204080CF
:102930000505050600018850F850880505050600C4
:10294000012020F820200303030601FF60408005DA
:102950000101060003F80303030601FF40E0400500
:1029600007070600000808102040808005070706BA
:1029700000002050888888502005070706000020A6
:1029800060A0202020F805070706000070880830A6
:102990004080F8050707060000F808103008887026
:1029A00005070706000010305090F81010050707C3
:1029B000060000F880B0C808887005070706000008
:1029C000304080B0C88870050707060000F808107E
:1029D000102040400507070600007088887088882E
:1029E00070050707060000708898680810600307E4
:1029F000070601FF40E0400040E0400307070601F2
:102A0000FF40E040006040800407070601001020FE
:102A10004080402010050303060002F800F8040778
:102A200007060100804020102040800507070600AF
:102A3000007088102020002005070706000070881D
:102A400098A8B0807005070706000020508888F815
:102A50008888050707060000F04848704848F005D8
:102A600007070600007088808080887005070706C9
:102A70000000F04848484848F0050707060000F8FD
:102A80008080F08080F8050707060000F88080F05D
:102A90008080800507070600007088808098887015
:102AA000050707060000888888F8888888030707D4
:102AB000060100E04040404040E0050707060000F6
:102AC000381010101090600507070600008890A0CD
:102AD000C0A0908805070706000080808080808065
:102AE000F80507070600008888D8A88888880507A1
:102AF000070600008888C8A8988888050707060088
:102B00000070888888888870050707060000F088AC
:102B100088F08080800508080600FF708888888813
:102B2000A87008050707060000F08888F0A09088C4
:102B30000507070600007088807008887005070781
:102B4000060000F8202020202020050707060000AE
:102B50008888888888887005070706000088888824
:102B600050505020050707060000888888A8A8D87C
:102B700088050707060000888850205088880507C8
:102B8000070600008888502020202005070706003F
:102B900000F80810204080F8030707060100E080D5
:102BA00080808080E00507070600008080402010BC
:102BB0000808030707060100E02020202020E00588
:102BC00003030600042050880501010600FFF802F7
:102BD000020206020680400505050600007008781E
:102BE00088780507070600008080B0C888C8B0054F
:102BF000050506000070888088700507070600003C
:102C0000080868988898680505050600007088F827
:102C10008070050707060000304840F0404040053E
:102C200007070600FE788888780888700507070679
:102C300000008080B0C8888888030707060100402C
:102C400000C0404040E00409090601FE10003010B9
:102C5000101090906005070706000080808890E0C3
:102C60009088030707060100C04040404040E0054F
:102C70000505060000D0A8A8A888050505060000DF
:102C8000B0C88888880505050600007088888870A7
:102C90000507070600FEB0C888C8B0808005070792
:102CA0000600FE6898889868080805050506000073
:102CB000B0C880808005050506000070807008F0AF
:102CC0000507070600004040F04040483005050574
:102CD0000600008888889868050505060000888831
:102CE0005050200505050600008888A8A850050555
:102CF0000506000088502050880507070600FE885A
:102D0000889868088870050505060000F8102040BE
:102D1000F8040707060100304020C02040300107BA
:102D200007060200808080808080800407070601FB
:102D300000C02040304020C005030306000448A81E
:102D400090000000010000000000010000000000F1
:102D50000100000000000100000000000100000070
:102D60000000010000000000010000000000010060
:102D70000000000001000000000001000000000051
:102D80000100000000000100000000000100000040
:102D90000000010000000000010000000000010030
:102DA0000000000001000000000001000000000021
:102DB0000100000000000100000000000100000010
:102DC0000000010000000000010000000000010000
:102DD00000000000010000000000010000000000F1
:102DE00001000000000001000000000001000000E0
:102DF00000000100000000000100000000000100D0
:102E000000000000010000000000060000010707AC
:102E1000060200800080808080800507070600FF92
:102E20002078A0A0A07820050707060000304840C1
:102E3000E04048B005050506000088705070880520
:102E400008080600FF88885020F820202001070786
:102E5000060200808080008080800508080600FF50
:102E60007080E09048380870030101060107A00552
:102E700007070600007088A8C8A888700406060620
:102E800001017090B05000F00605050600002448CE
:102E9000904824040202060102F010040101060118
:102EA00003F00507070600007088E8C8C8887005A9
:102EB0000101060007F803030306010440A04005D2
:102EC00006060600002020F82020F804050506016B
:102ED0000360902040F0040505060103E010601037
:102EE000E002020206020640800506060600FF8890
:102EF0008888C8B08005070706000078E8E86828D9
:102F00002828010101060203800202020602FE4097
:102F10008003050506010340C04040E004060606A4
:102F200001016090906000F00605050600009048E1
:102F30002448900609090600FF40C04040E40C14F4
:102F40003C040609090600FF40C04040E81404089C
:102F50001C0509090600FFC0204020C81828780871
:102F6000050707060000200020204088700508089B
:102F70000600004020708888F88888050808060048
:102F8000001020708888F88888050808060000204E
:102F900050708888F8888805080806000048B070D6
:102FA0008888F8888805080806000050007088881E
:102FB000F888880508080600002050708888F8887E
:102FC000880607070600003C50909CF0909C05097D
:102FD000090600FE708880808088702040050808FF
:102FE00006000040F88080F08080F80508080600A0
:102FF0000010F88080F08080F805080806000020A6
:10300000F88080F08080F805080806000050F880FD
:1030100080F08080F80308080601008040E040400E
:103020004040E00308080601002040E040404040E6
:10303000E003080806010040A0E040404040E003F3
:103040000808060100A000E040404040E0050707F6
:10305000060000F04848E84848F005080806000067
:10306000285088C8A89888880508080600004020CD
:10307000708888888870050808060000102070880D
:1030800088888870050808060000205070888888A5
:1030900088700508080600002850708888888870A5
:1030A00005080806000050007088888888700505AB
:1030B00005060000885020508805070706000070AC
:1030C0009898A8C8C870050808060000402088889D
:1030D000888888700508080600001020888888887D
:1030E00088700508080600002050008888888870CD
:1030F0000508080600005000888888888870050840
:1031000008060000102088885020202005070706A8
:10311000000080F088F080808005070706000070BE
:103120008890A09088B00508080600004020007034
:1031300008788878050808060000102000700878D4
:103140008878050808060000205000700878887804
:1031500005080806000028500070087888780507E0
:1031600007060000500070087888780508080600F7
:103170000020502070087888780605050600007841
:10318000147C907C0507070600FE708880887020FC
:10319000400508080600004020007088F88070058F
:1031A00008080600001020007088F88070050808E4
:1031B0000600002050007088F880700507070600A0
:1031C0000050007088F880700308080601008040F5
:1031D00000C0404040E0030808060100408000C0F5
:1031E000404040E003080806010040A000C0404005
:1031F00040E0060A0A0600FEA4A800FC8480808045
:1032000084FC060A0A0600FE549400FC84040404AC
:1032100084FC050808060000285000B0C88888888B
:103220000508080600004020007088888870040A9D
:103230000A0602FE30408090909090909090040A90
:103240000A0600FEC0201090909090909090060783
:1032500007060001448C8C8480403C06070706006A
:103260000188C4C4840408F0050505060001200097
:10327000F8002005080806000040F0C88888987803
:1032800010050808060000E0F88888888888F80596
:1032900005050600012030F830200508080600006A
:1032A0002070F820202020E00509090600FF20708A
:1032B000A8A8B8888850200509090600FFE080C04A
:1032C000B0A8A83028280509090600FFF8A88888B2
:1032D000888888A8F8050A0A0600FE205050505039
:1032E00088A8A8887000091200FC0A01E803D7200A
:1032F000FFFD0EFD0BFD00000009000E010B0B0988
:10330000040080808080808080000080800404042D
:1033100009030790909090080A0A090000242424C9
:10332000FF2424FF242424070B0B0901FF107C92A7
:103330009050381412927C10070A0A09010042A426
:10334000A4481010244A4A84070A0A090100609020
:10335000909060629488946201040409040780805C
:103360008080030C0C0903FF204040808080808017
:1033700080404020030C0C0903FF804040202020A7
:10338000202020404080070707090103109254388D
:10339000549210070707090101101010FE101010B9
:1033A0000204040904FEC0C04080070101090104B1
:1033B000FE020202090400C0C0070A0A0901000255
:1033C000040408101020404080070A0A0901003850
:1033D000448282828282824438070A0A09010010EC
:1033E0003050901010101010FE070A0A0901003822
:1033F0004482020408102040FE070A0A090100FE68
:10340000020408180402028478070A0A0901000469
:103410000C14244484FE040404070A0A090100FE73
:10342000808080F80402028478070A0A0901003CBF
:10343000408080B8C482824438070A0A090100FE2D
:10344000020404080810101010070A0A09010038C5
:10345000448244384482824438070A0A0901003809
:10346000448282463A02020478020707090400C037
:10347000C0000000C0C00209090904FEC0C000006D
:1034800000C0C040800509090902000810204080E2
:1034900040201008070404090102FE0000FE05098F
:1034A00009090200804020100810204080070A0A05
:1034B00009010038448202040810100010070A0AAB
:1034C00009010038449AAAAAAAAA9C403C070A0A01
:1034D00009010010282828447C44828282070A0AB5
:1034E000090100F8848284F884828284F8070A0A39
:1034F0000901003C42808080808080423C070A0AAB
:10350000090100F88482828282828284F8070A0A92
:10351000090100FE808080F880808080FE070A0A12
:10352000090100FE808080F88080808080070A0A80
:1035300009010038448280808E82824438070A0A5A
:1035400009010082828282FE8282828282050A0AC8
:10355000090200F82020202020202020F8070A0A55
:103560000901003E080808080808888870070A0A48
:1035700009010082848890A0D088848282070A0A88
:10358000090100808080808080808080FE070A0A98
:103590000901008282C6AA928282828282070A0A76
:1035A0000901008282C2A2928A86828282070A0A66
:1035B0000901007C82828282828282827C070A0ADE
:1035C000090100F884828284F880808080080B0BD7
:1035D0000901FF384482828282828A443A01070AC2
:1035E0000A090100F884828284F890888482070A9C
:1035F0000A0901007C8280807C020202827C070A28
:103600000A090100FE101010101010101010070A07
:103610000A09010082828282828282824438070AF9
:103620000A09010082828244444428282810070A9B
:103630000A0901008282828292929292AA44070A27
:103640000A09010082824428101028448282070A55
:103650000A09010082824428101010101010070A75
:103660000A090100FE0204081020408080FE040CBC
:103670000C0903FFF080808080808080808080F053
:10368000070A0A09010080404020101008040402C3
:10369000040C0C0902FFF010101010101010101084
:1036A00010F00704040901061028448208010109EA
:1036B00000FFFF03030309030A80402007070709EF
:1036C00001007C02027E82867A070A0A09010080D4
:1036D0008080BCC2828282C2BC0707070901007CCD
:1036E00082808080827C070A0A0901000202027A35
:1036F00086828282867A0707070901007C8282FE21
:1037000080827C070A0A0901001C22222020F8205E
:10371000202020070A0A0901FD7A84848478807CAD
:1037200082827C070A0A090100808080BCC28282F2
:10373000828282050A0A090200600000E02020203F
:103740002020F8050D0D0902FD18000038080808B2
:10375000080808888870070A0A09010080808084A8
:103760008890B0C88482050A0A090200E02020205F
:103770002020202020F8070707090100EC929292F0
:10378000929282070707090100BCC282828282826C
:103790000707070901007C82828282827C070A0A6D
:1037A0000901FDB8C4828282C4B8808080070A0AF9
:1037B0000901FD3A46828282463A02020207070761
:1037C0000901009C62424040404007070709010090
:1037D0007C82807C02827C0709090901002020FC90
:1037E00020202020221C07070709010082828282F4
:1037F00082867A070707090100828244442828103C
:103800000707070901008282929292AA44070707DC
:1038100009010082442810284482070A0A0901FD90
:103820004242242424181810906007070709010059
:10383000FE0408102040FE060B0B0902001C20208D
:103840002020C0202020201C010C0C0904FF8080B7
:1038500080808080808080808080060B0B09010042
:10386000E0101010100C10101010E00703030901F5
:103870000762928CFFFFFFFFFFFFFFFFFFFFFFFFCD
:10388000FFFFFFFFFFFFFFFFFFFFFFFFFFFFFFFF48
:10389000FFFFFFFFFF00000009000E010B0B0904F2
:1038A0000080800000808080808080800608080979
:1038B000010008789490A0A47840070A0A09010042
:1038C0001C222020F8202060A25C070606090103C4
:1038D000827C44447C82070A0A09010082824428CF
:1038E0007C107C101010010B0B0904FF808080807D
:1038F00080008080808080040B0B0902FF60908034
:10390000609090906010906003020209030BA0A0E9
:103910000809090900013C4299A5A1A599423C0565
:103920000707090103609070907800F807080809FC
:10393000010112244890904824120604040901024F
:10394000FC040404050101090204F808090909003E
:10395000013C42B9A5BDA9A5423C060101090109E6
:10396000FC0404040903066090906007090909013A
:1039700001101010FE10101000FE040606090104CC
:103980006090106080F00406060901046090201029
:10399000906003030309030A204080070909090115
:1039A000FE8282828282C6BA8080070A0A090100EA
:1039B0007E8A8A8A7A0A0A0A0A0A02020209040428
:1039C000C0C00403030902FD20906003060609013C
:1039D0000440C0404040E0050606090104708888A4
:1039E0007000F807080809010190482412122448C1
:1039F00090070A0A09010040C0404042E60A121A34
:103A000006070A0A09010040C040404CF2020C10AF
:103A10001E070A0A0901006090201092660A121A15
:103A200006070A0A09010010001010204080828257
:103A30007C070E0E090100201008001028282844D9
:103A40007C44828282070E0E0901000810200010BB
:103A5000282828447C44828282070E0E0901001027
:103A600028440010282828447C44828282070D0DB7
:103A700009010034580010282828447C448282829E
:103A8000070D0D09010028280010282828447C442F
:103A9000828282070E0E09010010282810102828A3
:103AA00028447C44828282070A0A0901001E2828D1
:103AB000284E784888888E070D0D0901FD3C42800C
:103AC0008080808080423C082418070E0E09010087
:103AD00020100800FE808080F880808080FE070E25
:103AE0000E09010008102000FE808080F880808090
:103AF00080FE070E0E09010010284400FE80808021
:103B0000F880808080FE070D0D090100282800FE46
:103B1000808080F880808080FE050E0E09020040C3
:103B2000201000F82020202020202020F8050E0E54
:103B300009020010204000F8202020202020202012
:103B4000F8050E0E09020020508800F820202020E1
:103B500020202020F8050D0D090200505000F8200B
:103B600020202020202020F8070A0A09010078449C
:103B70004242F24242424478070D0D090100345896
:103B8000008282C2A2928A86828282070E0E090178
:103B900000201008007C82828282828282827C07DE
:103BA0000E0E090100081020007C8282828282822F
:103BB00082827C070E0E090100102844007C82825C
:103BC0008282828282827C070D0D090100345800B6
:103BD0007C82828282828282827C070D0D090100B2
:103BE0002828007C82828282828282827C07070768
:103BF00009010182442810284482070C0C0901FFA6
:103C0000027C868A8A9292A2A2C27C80070E0E094A
:103C100001002010080082828282828282824438DF
:103C2000070E0E0901000810200082828282828223
:103C300082824438070E0E09010010284400828257
:103C40008282828282824438070D0D090100282871
:103C50000082828282828282824438070E0E0901AB
:103C60000008102000828244281010101010100745
:103C70000A0A0901008080FC828282FC8080800622
:103C80000A0A09010038444448D0484444445807CB
:103C90000B0B090100201008007C02027E82867A4C
:103CA000070B0B090100081020007C02027E8286AF
:103CB0007A070B0B090100102844007C02027E8267
:103CC000867A070A0A0901003458007C02027E82C3
:103CD000867A070A0A0901002828007C02027E82EF
:103CE000867A070C0C09010010282810007C0202BB
:103CF0007E82867A0707070901006C12127E909275
:103D00006C070A0A0901FD7C82808080827C104851
:103D100030070B0B090100201008007C8282FE8016
:103D2000827C070B0B090100081020007C8282FEB8
:103D300080827C070B0B090100102844007C8282E2
:103D4000FE80827C070A0A0901002828007C828202
:103D5000FE80827C050C0C0902008040200000E0FF
:103D60002020202020F8050C0C0902001020400023
:103D700000E02020202020F8050C0C090200205033
:103D8000880000E02020202020F8050B0B0902000D
:103D900050500000E02020202020F8070B0B0901E4
:103DA00000483050083C448282824438070A0A099D
:103DB0000100345800BCC28282828282070B0B0948
:103DC0000100201008007C82828282827C070B0B1B
:103DD000090100081020007C82828282827C070B0D
:103DE0000B090100102844007C82828282827C07B9
:103DF0000A0A0901003458007C82828282827C0790
:103E00000A0A0901002828007C82828282827C07BB
:103E1000090909010010381000FE001038100709C8
:103E2000090901FF027C8A8A92A2A27C80070B0BFF
:103E3000090100402010008282828282867A070B6C
:103E40000B090100081020008282828282867A0794
:103E50000B0B090100102844008282828282867A3C
:103E6000070A0A0901002828008282828282867A53
:103E7000070E0E0901FD04081000424224242418F4
:103E800018109060070B0B0901FE8080B8C4828275
:103E900082C4B88080070D0D0901FD242400424230
:103EA000242424181810906000002100240027000A
:103EB0002A002D0030003300010100000401070139
:103EC0000A0100002200250028002B002E003100EE
:103ED000340002010000050108010B010000200070
:103EE0002300260029002C002F00320000010000D2
:103EF000030106010901050505050705080808086D
:103F0000020202020A0A0808040404040101010171
:103F1000010101010303030303030303040707076C
:103F20000C0C0C0C0C0C0C0C020202020606060611
:103F3000060606060B0B0B0B0B0B0B0B01021020DE
:103F400020080810204010204080020102010804CF
:103F50000201010204081020408080402010080463
:103F600002018004020180402010080402010804BC
:103F70000201010204081020408001020408102000
:103F800040800000090A02080B0C0D07060304011B
:103F90000000000000000000000000000000000021
:103FA00000000000000000000000000000001110F0
:103FB0000F000000000000000000000000000000F2
:103FC000000000000000000002494E46494E4954DE
:103FD000594E414ECDCCCC3D0AD7233C17B7D138F2
:103FE00077CC2B329595E6241FB14F0A0000204173
:103FF0000000C84200401C4620BCBE4CCA1B0E5AE2
:10400000AEC59D740D3AA23E2FE431F29D3E1124BF
:104010001FBECFEFD1E2DEBFCDBF00E00CBF14E08A
:10402000A0E0B2E0EEE5FDE002E00BBF02C00790C9
:104030000D92A03DB107D9F71BBE15E1A0EDB4E08C
:1040400001C01D92AF3EB107E1F710E4CCE0D0E42F
:1040500004C02297FE010F945506C430D107C9F75A
:104060000E9450FD0D94A3060C940000A0E0B0E067
:10407000ECE3F0E20D947206EC015B016115710551
:1040800019F0FB0191838083F9908F2D90E00F94BC
:104090005906892BC9F7FDE2FF1621F4F990EE24A9
:1040A000E39405C02BE2F21609F4F990EE248E0198
:1040B00001501040C80169EC7FE343E050E062D258
:1040C000892BF9F48E010E5F1F4FC8016CEC7FE362
:1040D00045E050E057D2892B19F48E01095F1F4F3C
:1040E000A114B10419F0F50111830083E0FC04C0B0
:1040F00070E090E080E813C070E090E080E86FEF3F
:1041000007C1C80161ED7FE343E050E03BD2892B5A
:1041100069F4A114B10429F470E090E080EC6FE739
:10412000F7C02296F501D183C083F6CF8824992465
:1041300040E050E060E070E0EF2DE053EA30A0F5A1
:10414000F2E0EF2A8E2D90E09C0128703070E2FEA4
:1041500006C0232B79F50894811C911C2BC0232BBE
:1041600019F0089481089108DB01CA0112E0880F58
:10417000991FAA1FBB1F1A95D1F7480F591F6A1F15
:104180007B1F440F551F661F771F4E0F511D611D6A
:10419000711D483929E9520729E9620729E17207A7
:1041A00048F084E0E82A06C0EE3F31F4E3FC39C071
:1041B00098E0E92AF990C0CFE53311F0E53189F5AF
:1041C00029912D3219F4E0E1EE2A05C02B3219F0C5
:1041D00081E090E003C0299182E090E0E22FE0537B
:1041E000EA3018F0C81BD90B1CC020E030E0FCE01E
:1041F00020383F075CF4C901880F991F880F991F69
:10420000280F391F220F331F2E0F311DE991E05364
:10421000EA3068F3E4FE03C0309521953F4F820EEB
:10422000931ECE2CDD24E1FE07C0A114B10421F0C1
:104230002197F501D183C083CB01BA010F94BE024F
:104240007B018C01F3E0CF22DD2423E0C216D104F0
:1042500021F417FB109517F9109557016801C80153
:10426000B70120E030E040E050E00F941E028823C8
:1042700009F44AC097FE0DC028EEE22E2FE3F22E7D
:104280009094819491089394C0E2D0E000E010E013
:1042900012C090E0E92E90E4F92EF6CFF7012591B7
:1042A000359145915491C601B5010F94FE045B010F
:1042B0006C018C1A9D0A8C169D0684F7D595C795BE
:1042C0000F5F1F4F0630110529F08CEF9FEFE80EAE
:1042D000F91EF1CFC501D6017C018D018C2D880F0F
:1042E0008D2D881F8F3F51F0C601B50120E030E0D1
:1042F00040E050E00F941E02882331F482E290E007
:104300009093EE158093ED157E2D9F2D802F612FBC
:10431000272F392F482F562FB901CA01CDB7DEB745
:10432000ECE00D948E062F923F925F926F927F92F7
:104330008F929F92AF92BF92CF92DF92EF92FF92B5
:104340000F931F93CF93DF938C011B01EA0161153B
:10435000710519F0FB0191838083209749F0CE010C
:104360000297839728F020E030E040E050E0F6C06C
:10437000F801A1908F018A2D90E00F945906892BA6
:10438000B9F7FDE2AF1631F4F801A1908F01552481
:10439000539407C0FBE2AF1619F4F801A1908F0106
:1043A0005524209719F0C031D105C1F4F0E3AF16C0
:1043B00079F4F8018081883711F0883549F4F801E3
:1043C000A1800E5F1F4FF2E05F2AC0E1D0E006C07F
:1043D000209721F480E3A816E9F427C0C830D1055E
:1043E00031F1C930D10524F4C230D10531F50CC00A
:1043F000CA30D10589F0C031D105F9F4C12CD12CD6
:10440000E12CB8E0FB2E28C0C12CD12CE12CA0E47B
:10441000FA2E22C0CAE0D0E0FCECCF2EFCECDF2E5E
:10442000FCECEF2EFCE0FF2E17C0C8E0D0E0C12C62
:10443000D12CE12CE0E1FE2E0FC09E01442737FD78
:104440004095542F60E070E080E090E80F941606ED
:10445000C901DA016C017D0120E030E040E050E06C
:1044600060E03E01882477FC8094982C70EDB72E94
:10447000BA0CE9E0EB1570F48A2D81548A3118F4F6
:1044800099ECB92E06C08A2D81568A3150F589EAF9
:10449000B82EBA0C8B2D90E08C179D0714F56F3F4A
:1044A000E1F0C216D306E406F506B0F0CA01B90180
:1044B000A40193010F94D0059B01AC012B0D311D7C
:1044C000411D511D2130F0E03F07F0E04F07F0E8BB
:1044D0005F0710F461E001C06FEFF801A1908F0158
:1044E000C5CF2114310481F0662331F00150104012
:1044F000F1011183008308C051FE1AC00250104020
:10450000F1011183008314C067FF12C050FC05C085
:104510002FEF3FEF4FEF5FE704C020E030E040E0D7
:1045200050E882E290E09093EE158093ED1516C06E
:1045300050FE08C050954095309521953F4F4F4F04
:104540005F4F0CC057FF0AC082E290E09093EE15D7
:104550008093ED152FEF3FEF4FEF5FE7B901CA01F1
:10456000DF91CF911F910F91FF90EF90DF90CF904F
:10457000BF90AF909F908F907F906F905F903F9093
:104580002F900895FB01DC014150504088F08D913F
:1045900081341CF08B350CF4805E659161341CF025
:1045A0006B350CF4605E861B611171F3990B0895F5
:1045B000881BFCCFFB01DC014150504048F00590C6
:1045C0000D920020C9F701C01D9241505040E0F704
:1045D0000895FB0155915523A9F0BF01DC014D91D0
:1045E00045174111E1F759F4CD010590002049F03C
:1045F0004D9140154111C9F3FB014111EFCF81E00D
:1046000090E001970895FB01DC0104C08D910190B9
:10461000801921F441505040C8F7881B990B089528
:10462000FB01DC0102C001900D9241505040D8F7CF
:104630000895FB01DC018D9181341CF08B350CF465
:10464000805E619161341CF06B350CF4605E861BFA
:10465000611189F3990B0895FB01DC010D90002095
:10466000E9F7119701900D920020E1F70895FC0100
:104670008191861721F08823D9F7992708953197DA
:10468000CF010895FB01DC018D910190801901108B
:10469000D9F3990B0895FB01DC0101900D920020E4
:1046A000E1F70895FB01DC014150504030F08D915D
:1046B0000190801919F40020B9F7881B990B08950F
:1046C000FB01DC014150504048F001900D92002068
:1046D000C9F701C01D9241505040E0F70895AEE087
:1046E000B0E0E5E7F3E20D947A060E891F898EE0CB
:1046F0008C831A8309838FEF9FE79E838D839E01AE
:10470000265E3F4FCE010196688D798DA9010AD0B2
:104710002F813885020F131FF80110822E96E4E0D6
:104720000D949606ABE0B0E0E8E9F3E20D946C0678
:104730003C012B015A01FC0117821682838181FD05
:1047400003C06FEF7FEFB9C19AE0892E1E01089474
:10475000211C311CF3012381F20123FD859123FFEC
:1047600081912F01882309F4A5C1853239F423FDF5
:10477000859123FF81912F01853221F490E0B301CF
:10478000B7D1E8CF982FFF24EE249924FFE1FF153D
:10479000D0F09B3269F09C3228F4903259F0933279
:1047A00091F40EC09D3249F0903369F441E024C089
:1047B00052E0F52A84E0F82A28C098E0F92A25C0BA
:1047C000E0E1FE2A22C0F7FC29C0892F80538A30FD
:1047D00070F4F6FE05C0989C902C1124980E15C01C
:1047E000E89CE02C1124E80EF0E2FF2A0EC09E3275
:1047F00029F4F6FC5FC140E4F42A07C09C3619F4A2
:1048000050E8F52A02C0983649F4F20123FD95914B
:1048100023FF91912F01992309F0B8CF892F855457
:10482000833018F08052833038F444E050E0A40E16
:10483000B51E5FE359830FC0933631F0933779F09B
:10484000933509F052C01FC0F5018081898342E091
:1048500050E0A40EB51E610101E010E011C0F501A9
:10486000C080D180F6FC03C06FEF7FEF02C0692DDE
:1048700070E042E050E0A40EB51EC6012ED18C01BE
:104880005FE7F52213C0F501C080D180F6FC03C0BC
:104890006FEF7FEF02C0692D70E042E050E0A40EA0
:1048A000B51EC6010FD18C0150E8F52AF3FE06C0F3
:1048B00018C080E290E0B3011BD1EA948E2D90E005
:1048C00008171907B0F30DC0F601F7FC8591F7FE44
:1048D00081916F0190E0B3010BD1E110EA94015096
:1048E00010400115110581F7E2C0943611F0993698
:1048F00061F5F7FE08C0F5012081318142815381C5
:1049000084E090E00AC0F501808191819C014427F8
:1049100037FD4095542F82E090E0A80EB91E9FE627
:10492000F92257FF09C050954095309521953F4F8A
:104930004F4F5F4FE0E8FE2ACA01B901A1012AE00A
:1049400030E002D1D82ED2183FC0953729F41F2D60
:104950001F7E2AE030E01DC01F2D197F9F3661F0B9
:10496000903720F4983509F0A5C00FC0903739F082
:10497000983709F09FC004C028E030E00AC01061F9
:1049800014FD146020E130E004C014FD166020E145
:1049900032E017FF08C0F501608171818281938147
:1049A00044E050E008C0F50180819181BC0180E0C5
:1049B00090E042E050E0A40EB51EA101C5D0D82E73
:1049C000D2188FE7F82EF122F6FE0BC05EEFF5222B
:1049D000D91438F4F4FE07C0F2FC05C08FEEF822BB
:1049E00002C01D2D01C0192DF4FE0DC0FE01ED0DFC
:1049F000F11D8081803319F499EEF92208C01F5F00
:104A0000F2FE05C003C08F2D867809F01F5F0F2DC1
:104A1000F3FC13C0F0FE0EC01E1510F09D2C0AC052
:104A20009D2C9E0C911A1E2D05C080E290E0B301D2
:104A30005FD01F5F1E15C8F304C01E1510F4E11AE5
:104A400001C0EE2404FF0EC080E390E0B30150D01B
:104A500002FF1BC001FD03C088E790E00EC088E59F
:104A600090E00BC0802F867881F001FF02C08BE2BE
:104A700001C080E2F7FC8DE290E0B30139D005C0BF
:104A800080E390E0B30134D09A94D914C8F3DA9457
:104A9000F101ED0DF11D808190E0B30129D0DD2001
:104AA000B1F705C080E290E0B30122D0EA94EE2095
:104AB000C9F750CEF30166817781CB012B96E2E1F5
:104AC0000D948806FC010590615070400110D8F7E4
:104AD000809590958E0F9F1F0895FC016150704046
:104AE00001900110D8F7809590958E0F9F1F089523
:104AF0000F931F93CF93DF938C01EB018B8181FF89
:104B00001BC082FF0DC02E813F818C819D812817A3
:104B1000390764F4E881F9810193F983E88306C0D9
:104B2000E885F985802F1995892B31F48E819F8135
:104B300001969F838E8302C00FEF1FEFC801DF91A4
:104B4000CF911F910F910895FA01AA27283051F1B2
:104B5000203181F1E8946F936E7F6E5F7F4F8F4FAE
:104B60009F4FAF4FB1E03ED0B4E03CD0670F781F0D
:104B7000891F9A1FA11D680F791F8A1F911DA11DF2
:104B80006A0F711D811D911DA11D20D009F468942B
:104B90003F912AE0269F11243019305D3193DEF6D3
:104BA000CF010895462F4770405D4193B3E00FD089
:104BB000C9F7F6CF462F4F70405D4A3318F0495D74
:104BC00031FD4052419302D0A9F7EACFB4E0A69557
:104BD0009795879577956795BA95C9F70097610579
:104BE000710508959B01AC010A2E069457954795CF
:104BF00037952795BA95C9F7620F731F841F951FC4
:104C0000A01D0895FC01128213820895FC01838186
:104C1000882311F081E082830895FC018281811153
:104C200012820895CF93DF93DC01FC01EB55FE4F18
:104C3000808191810097C9F1019791838083ED0173
:104C4000CC5ADF4FFD01ED58FF4F8BE101900992E7
:104C50008150E1F7FD01EE5AFF4FAF58BF4F8D91E4
:104C60009C911197A157B04091838083FD01ED582D
:104C7000FF4F20E030E0AD014B555E4F10C02F5F7D
:104C80003F4FEF01DF015F968BE10D90099281505C
:104C9000E1F7858D968D329791838083B196DA0105
:104CA0008D919C912817390750F3DF91CF9108958A
:104CB000FC0186E994E0918380838781882321F039
:104CC000CF0104960C94BA840895CF92DF92EF92AC
:104CD000FF920F931F93DF93CF93CDB7DEB76F97FC
:104CE0000FB6F894DEBF0FBECDBF8C016B01095A21
:104CF0001F4FD8018C9107551040882321F42FE2D3
:104D0000E22EF12C03C090E5E92EF12CE00EF11E0D
:104D100086E994E09A8389831C821B8218861D820F
:104D2000B7016C5F7F4FCE010596A60121E00E947E
:104D3000A68B882391F5E7E8F5E0949108C080916F
:104D4000C00085FFFCCF9093C600319694919923C3
:104D5000B1F7EBE3F1E0949108C08091C00085FFCA
:104D6000FCCF9093C600319694919923B1F709C076
:104D70008091C00085FFFCCF0894C11CD11C90938A
:104D8000C600F6019081992399F78091C00085FFB4
:104D9000FCCF8AE08093C6005AC0F801EB55FE4F65
:104DA000208131812A30310508F040C02F5F3F4F0C
:104DB0003183208321503040F90185E0EE0FFF1F41
:104DC0008A95E1F7E21BF30BED58FF4FE00FF11F5F
:104DD00013C0AF01415E5F4FBF018BE1DB010D905E
:104DE000BD01DA010D92AD018150C1F7929182911E
:104DF0003296968F858F7F9721503040BFEF2E3FA0
:104E00003B0739F7D801AD58BF4FF70134968BE116
:104E100001900D928150E1F70F581F4FF7018281E9
:104E20009381D8018D939C9301571040D801AC5ABF
:104E3000BF4FFE0135968BE101900D928150E1F755
:104E40000E5A1F4F8B819C81F80191838083CE0184
:104E500001962EDF6F960FB6F894DEBF0FBECDBF62
:104E6000CF91DF911F910F91FF90EF90DF90CF9046
:104E70000895EF92FF920F931F938C013EECE32E67
:104E800031E0F32EE80EF91EC7010E946D84C701C0
:104E90000E94BA84F801118210821F910F91FF9035
:104EA000EF900895CF92DF92EF92FF920F931F93AE
:104EB000CF93DF937C016B01DB010D900020E9F7BC
:104EC0008D0101501040061B170BEEECF1E0EE0EC9
:104ED000FF1ED7011C92E2E3FEEFEE0EFF1ECB0198
:104EE0006EE470E0C4DBEC01009731F4F801319717
:104EF000EC0DFD1D86010CC060E270E0B8DB8C019A
:104F00000F5F1F4FCE016AE270E0B1DBFC01319709
:104F10008DE081838AE082831382C70186539E4F8E
:104F2000B8010E94B78C8EEC91E0E80EF91ED70113
:104F30008C91882319F1E0E8F5E0949108C0809104
:104F4000C00085FFFCCF9093C600319694919923C1
:104F5000B1F7E5E6F1E0949108C08091C00085FFCB
:104F6000FCCF9093C600319694919923B1F780912C
:104F7000C00085FFFCCF8AE08093C600DF91CF910F
:104F80001F910F91FF90EF90DF90CF900895CF93F6
:104F9000DF93EC018B81882309F43BC0EDE8F1E05D
:104FA000949108C08091C00085FFFCCF9093C6000B
:104FB000319694919923B1F7CD57DD4F48815981AE
:104FC0006A817B81C358D24084E595E02AE030E0D5
:104FD0000E94A63AEBE8F1E0949108C08091C000ED
:104FE00085FFFCCF9093C600319694919923B1F739
:104FF000C558DD4F488159816A817B8184E595E000
:105000002AE030E00E94A63A8091C00085FFFCCFE4
:1050100012C0EBE7F1E0949108C08091C00085FFD9
:10502000FCCF9093C600319694919923B1F780916B
:10503000C00085FFFCCF8AE08093C600DF91CF914E
:1050400008952F923F924F925F926F927F928F922C
:105050009F92AF92BF92CF92DF92EF92FF920F9307
:105060001F93DF93CF93CDB7DEB7AC970FB6F8940D
:10507000DEBF0FBECDBF5C014B01FC0183818823E5
:1050800009F43BC1C50182539E4F0E94BA84F501C9
:1050900012821A8A1D8A198A188A86E994E09F87E3
:1050A0008E875EE4C52ED12CCA0CDB1C2FE230E0CB
:1050B000A20EB31EF601B182A08221ED3FEFA20E37
:1050C000B31EF40180818F3209F08DC0C4016FE2FC
:1050D00070E0CDDA7C010894E11CF11C3E010894DB
:1050E000611C711C260142E1242E312C2C0E3D1E28
:1050F00075C0C7016FE270E0BADA6C01009709F47D
:1051000080C0E816F90608F07CC08C010E191F0952
:10511000C301B701A801D4DA060D171DF8011082EA
:10512000F30107C08091C00085FFFCCF31969093BA
:10513000C60090819923B1F78091C00085FFFCCF14
:10514000FAE0F093C600F20160817181611571058A
:1051500019F460E070E002C06C5F7F4FC101A301F1
:1051600021E00E94A68B882371F5E9ECF1E094918F
:1051700008C08091C00085FFFCCF9093C600319697
:1051800094919923B1F7FE01319607C08091C00038
:1051900085FFFCCF31969093C60090819923B1F79B
:1051A000E7ECF1E0949108C08091C00085FFFCCF4E
:1051B0009093C600319694919923B1F78091C000E5
:1051C00085FFFCCF94C02EE030E02C0F3D1FF20194
:1051D0003183208376010894E11CF11CE114F10471
:1051E00009F087CF0BC080E590E0A80EB91EF6014C
:1051F000B182A08220EB3FEFA20EB31ED82C092D66
:1052000002C0DE2C0F2D8EE490E0A80EB91EF50131
:105210008081918122EB3FEFA20EB31E009719F41B
:1052200080E090E001C004966D2D702F0E94728C7A
:10523000882371F1E9EBF1E0949108C08091C000FE
:1052400085FFFCCF9093C600319694919923B1F7D6
:105250008D2D902F9C01F90107C08091C00085FF22
:10526000FCCF31969093C60090819923B1F780913D
:10527000C00085FFFCCF8AE08093C60083E892E0FF
:10528000A80EB91EF501108211821282138232C05B
:10529000E1EAF1E0949108C08091C00085FFFCCF65
:1052A0009093C600319694919923B1F78D2D902F4C
:1052B0009C01F90107C08091C00085FFFCCF3196A9
:1052C0009093C60090819923B1F7EFE9F1E09491B2
:1052D00008C08091C00085FFFCCF9093C600319636
:1052E00094919923B1F78091C00085FFFCCF8AE0AB
:1052F0008093C600CE010E96DBDCAC960FB6F89418
:10530000DEBF0FBECDBFCF91DF911F910F91FF90F8
:10531000EF90DF90CF90BF90AF909F908F907F9055
:105320006F905F904F903F902F900895BF92CF92D3
:10533000DF92EF92FF920F931F93CF93DF938C0135
:10534000EB018FE28993EE24E394FF2475EAC72EE4
:1053500071E0D72EC00ED11E6FE1B62E14C0FB9C9B
:10536000C00111248D589F4F800F911FBE010E94D4
:10537000CA8402C02196E3948881882319F08CE8BE
:105380008E15C0F7F3942F2D30E0F60180819181C6
:105390002817390720F3E7FC07C0C80182539E4F46
:1053A000BE010E94CA8401C01882DF91CF911F9173
:1053B0000F91FF90EF90DF90CF90BF900895EF9204
:1053C000FF920F931F93CF93DF938C01FC01138205
:1053D00086A9882321F0C801C3960E94BA84E7EA0F
:1053E000EE2EE1E0FE2EE00EF11EC70160E045E387
:1053F0000E946982882309F5E7E8F5E0949108C0E6
:105400008091C00085FFFCCF9093C60031969491A7
:105410009923B1F7E2E1F3E0949108C08091C000D4
:1054200085FFFCCF9093C600319694919923B1F7F4
:105430008091C00085FFFCCF7DC0E801C455DE4FE0
:10544000CE01B70141E00E94488D882341F5CE018D
:10545000B70140E00E94488D882309F5E0E8F5E0B7
:10546000949108C08091C00085FFFCCF9093C60046
:10547000319694919923B1F7EFEFF2E0949108C03F
:105480008091C00085FFFCCF9093C6003196949127
:105490009923B1F78091C00085FFFCCF4BC0C801B4
:1054A000C396BE010E94AC87882309F5E0E8F5E0C9
:1054B000949108C08091C00085FFFCCF9093C600F6
:1054C000319694919923B1F7EFEEF2E0949108C0F0
:1054D0008091C00085FFFCCF9093C60031969491D7
:1054E0009923B1F78091C00085FFFCCF23C081E0F4
:1054F000F8018383E7E8F5E0949108C08091C0004B
:1055000085FFFCCF9093C600319694919923B1F713
:10551000E4EEF2E0949108C08091C00085FFFCCFDA
:105520009093C600319694919923B1F78091C00071
:1055300085FFFCCF8AE08093C600D801AC5ABF4FEC
:10554000F801F3968BE101900D928150E1F7F8019B
:1055500081A992A90E5A1F4FF801918380830255A9
:105560001040C8018F96025B1F4FF8019183808322
:10557000DF91CF911F910F91FF90EF9008952F929F
:105580003F924F925F926F927F929F92AF92BF92A3
:10559000CF92DF92EF92FF920F931F93DF93CF93FF
:1055A000CDB7DEB7CC55D0400FB6F894DEBF0FBEF6
:1055B000CDBF6C01662309F0E3C027E832E0C20EDC
:1055C000D31ED6018C91E9E7FDEFCE0EDF1E8823B6
:1055D00009F4E7C02FE732E0C20ED31ED601ED90EA
:1055E000FD900D911C91E1E8FDEFCE0EDF1E0E94B3
:1055F00094FAE616F7060807190708F4D2C0C0C0E7
:10560000C601DDDED60113968C91882309F4C9C04A
:1056100000D000D0EDB7FEB731967E010894E11CB2
:10562000F11CADB7BEB71296FC92EE9211978CE5C5
:1056300091E093838283D6019D968D919C919E9754
:10564000958384834CD88701EDB7FEB736960FB6A5
:10565000F894FEBF0FBEEDBF57010AC0D8018C9170
:10566000992787FD90950F946106F80181938F012A
:10567000F50101900020E9F73197EA19FB09802F25
:105680008E198E175CF313E3A12EB12CAC0CBD1C4C
:10569000C50140E050E060E070E00E94A3839924DF
:1056A000BDE3EB2EF12CEC0EFD1E2E010894411CE7
:1056B000511CAFE16A2E712C6C0E7D1EF5E52F2E6C
:1056C000F1E03F2E42C0D8018C9190E00F9461062A
:1056D000F80181938F01D7010D900020E9F7119710
:1056E000AE19BF09802F8E198A176CF327968FADDC
:1056F00027978E3751F1C701B20145E050E00E9473
:105700005223009711F500D000D0EDB7FEB73196C7
:10571000ADB7BEB712967C926E92119733822282F9
:10572000558244820E946F23EDB7FEB736960FB6BE
:10573000F894FEBF0FBEEDBFC3010E944F4581E547
:1057400091E00E94B96899249394C501B70140E0A3
:1057500050E00E94CB86181614F48701BCCF992024
:1057600041F48FEF9FEFD6019E969C938E939D9769
:1057700018C0F60185A596A5019696A785A711C024
:1057800027E832E0C20ED31ED6011C92E9E7FDEFF6
:10579000CE0EDF1ED60113968C91882309F430CFEC
:1057A00037CFC45ADF4F0FB6F894DEBF0FBECDBF60
:1057B000CF91DF911F910F91FF90EF90DF90CF90ED
:1057C000BF90AF909F907F906F905F904F903F9071
:1057D0002F9008952F923F924F925F926F927F92F7
:1057E0008F929F92AF92BF92CF92DF92EF92FF92F1
:1057F0000F931F93DF93CF93CDB7DEB7CF58D04031
:105800000FB6F894DEBF0FBECDBF8C012B016A012D
:10581000C757DF4F39832883C958D04084E090E0D0
:10582000C80ED91EF8017296C957DF4FF983E88375
:10583000C758D04045E0642E712C600E711ECA57C7
:10584000DF4F1882C658D04036E6E32EF12CEC0E1E
:10585000FD1EC7010B96C557DF4F99838883CB5830
:10586000D04028E8822E22E0922E800E911E9AE8E7
:10587000A92E92E0B92EA00EB11E87E4282E312C5D
:105880002C0E3D1EF1013496C357DF4FF983E88398
:10589000CD58D040E7E8F5E08491C157DF4F8883C9
:1058A000CF58D0404CC1F7018385282F30E0A901A3
:1058B000487150704031510509F04FC1F4018081A9
:1058C00091818130910509F448C1029709F445C1DD
:1058D000F701DE0111969081903239F08E2F8E19EA
:1058E000883011F48EE28D939D933196C557DF4F2A
:1058F00088819981CB58D040E817F90761F71C924D
:105900001E86F2018081882331F4CE010E9660E07C
:1059100072E00E942C23CE010E96B2010E942C232D
:10592000CE010E96BE016F5F7F4F0E942C23CE01E9
:105930000E9660E072E00E942C231CA61FA61BA6F8
:105940001AA686E994E099A788A7CE018C96B6019D
:10595000AE014F5F5F4F21E00E94A68B882309F0C4
:105960003FC0F40180819181892BD1F5C157DF4F70
:105970009881CF58D040E7E8F5E008C08091C0009A
:1059800085FFFCCF9093C600319694919923B1F78F
:10599000E2E0F2E007C08091C00085FFFCCF3196C5
:1059A0009093C60090819923B1F78091C00085FF44
:1059B000FCCFFAE0F093C600FE01319607C080915B
:1059C000C00085FFFCCF31969093C600908199234B
:1059D000B1F78091C00085FFFCCF8AE08093C600BC
:1059E000C357DF4FA881B981CD58D040FE01BC9686
:1059F0008BE101900D928150E1F78AA59BA5F10101
:105A00009383828386E994E091838083C801BE01F9
:105A1000625F7F4FA10120E030E0DCDEC10148D9A8
:105A2000CE01889645D98BC08E3209F488C0F80122
:105A300082898E3209F483C023FD81C080E0403129
:105A4000510509F481E0F8018483882349F4F701C2
:105A50008085873409F073C081858E3709F46FC063
:105A6000D301F7018081803241F08E2F8E1988306A
:105A700011F48EE28D9380818D933196C557DF4F5F
:105A800088819981CB58D040E817F90759F71C92C3
:105A9000F40180819181009701F5F20107C08091A6
:105AA000C00085FFFCCF31969093C600908199236A
:105AB000B1F7F30107C08091C00085FFFCCF31969C
:105AC0009093C60090819923B1F78091C00085FF23
:105AD000FCCFFAE0F093C60032C08130910539F472
