:100000000C9423200C9450200C9450200C945020DD
:100010000C9450200C9450200C9450200C945020A0
:100020000C9450200C9450200C9450200C94502090
:100030000C9450200D941E000C9450200C945020D1
:100040000C9450200C94C5940C9450200C94502087
:100050000C9450200C9450200C94949E0C9473FC9F
:100060000C9450200C9495390C9450200C945020F2
:100070000C9450200C9450200C9450200C94502040
:100080000C9450200C9450200C9450200C94502030
:100090000C9450200C9450200C9450200C94E9F4B3
:1000A0000C9450200C9450200C9450200C94502010
:1000B0000C9450200C9450200C9450200C94502000
:1000C0000C9450200C9450200C9450200C945020F0
:1000D0000C9450200C9450200C9450200C945020E0
:1000E0000C945020084AD73B3BCE016E84BCBFFD28
:1000F000C12F3D6C74319ABD56833DDA3D00C77FF8
:1001000011BED9E4BB4C3E916BAAAABE0000008090
:100110003F05A84CCDB2D44EB93836A9020C50B91F
:10012000918688083CA6AAAA2ABE000000803F4DFE
:10013000383420582059205A20450043616E6E6F94
:100140007420656E746572207375626469723A20FA
:10015000004D3234004D3233202573006175746FC9
:1001600025692E67006572726F72207772697469F3
:100170006E6720746F2066696C65004E6F74205343
:1001800044207072696E74696E67002F00534420BA
:100190007072696E74696E67206279746520002ED2
:1001A0000044656C6574696F6E206661696C656496
:1001B0002C2046696C653A200046696C65206465B0
:1001C0006C657465643A002E006F70656E20666120
:1001D000696C65642C2046696C653A200057726929
:1001E00074696E6720746F2066696C653A20002E12
:1001F000006F70656E206661696C65642C204669CD
:100200006C653A20002E006F70656E206661696C27
:1002100065642C2046696C653A200046696C65204F
:1002200073656C6563746564002053697A653A2070
:100230000046696C65206F70656E65643A20002E1B
:10024000006F70656E206661696C65642C2046697C
:100250006C653A20004E6F77206672657368206681
:10026000696C653A20004E6F7720646F696E672075
:1002700066696C653A20002220706F73002220703E
:100280006172656E743A2200535542524F5554497B
:100290004E452043414C4C207461726765743A228C
:1002A00000747279696E6720746F2063616C6C20D2
:1002B0007375622D67636F64652066696C65732072
:1002C0007769746820746F6F206D616E79206C653A
:1002D00076656C732E204D4158206C6576656C20D8
:1002E00069733A0053442063617264206F6B006F3E
:1002F00070656E526F6F74206661696C656400761C
:100300006F6C756D652E696E6974206661696C65C8
:100310006400534420696E6974206661696C002032
:100320005A005A2D50726F6265204F66667365746D
:1003300020286D6D293A0046696C616D656E7420E8
:1003400073657474696E67733A2044697361626C93
:100350006564002020204D3230302054312044008C
:100360002020204D32303020440046696C616D659C
:100370006E742073657474696E67733A002044006C
:100380002049002020204D33303120500050494476
:100390002073657474696E67733A00205A0020599F
:1003A0000020204D323036205800486F6D65206F98
:1003B000666673657420286D6D293A00204500201B
:1003C0005A0020580020420020540020204D323096
:1003D00035205300416476616E63656420766172F6
:1003E0006961626C65733A20533D4D696E206665A4
:1003F00065647261746520286D6D2F73292C2054FB
:100400003D4D696E2074726176656C206665656429
:100410007261746520286D6D2F73292C20423D6D0B
:10042000696E696D756D207365676D656E74207496
:10043000696D6520286D73292C20583D6D617869A0
:100440006D756D205859206A65726B20286D6D2F6F
:1004500073292C20205A3D6D6178696D756D205A85
:10046000206A65726B20286D6D2F73292C20204522
:100470003D6D6178696D756D2045206A65726B20F0
:10048000286D6D2F73290020540020204D32303408
:10049000205300416363656C65726174696F6E3AE5
:1004A00020533D616363656C65726174696F6E2C86
:1004B00020543D7265747261637420616363656C7E
:1004C00065726174696F6E00204500205A002059E2
:1004D0000020204D3230312058004D6178696D7513
:1004E0006D20416363656C65726174696F6E20286D
:1004F0006D6D2F7332293A00204500205A00205993
:100500000020204D3230332058004D6178696D75E0
:100510006D2066656564726174657320286D6D2F4A
:1005200073293A00204500205A0020590020204D10
:1005300039322058005374657073207065722075CD
:100540006E69743A0048617264636F646564204444
:10055000656661756C742053657474696E67732089
:100560004C6F61646564004572726F7220777269C6
:1005700074696E6720746F20454550524F4D2100BD
:100580004572726F723A006563686F3A0053544F58
:10059000505045442E20005072696E74657220736D
:1005A000746F707065642064756520746F20657267
:1005B000726F72732E2046697820746865206572A8
:1005C000726F7220616E6420757365204D39393900
:1005D00020746F20726573746172742E20285465C4
:1005E0006D706572617475726520697320726573D0
:1005F00065742E2053657420697420616674657279
:100600002072657374617274696E6729004B494C7E
:100610004C45442E20005072696E746572206861EA
:100620006C7465642E206B696C6C28292063616C86
:100630006C656421006F6B00526573656E643A20CF
:10064000002200556E6B6E6F776E20636F6D6D616B
:100650006E643A20220020453A00205A3A00205980
:100660003A00583A004F6666736574205A3A202063
:100670000043757272656E74205A3A2020005A2029
:10068000726573746175726164613A2000486F74B9
:10069000656E64206F6666736574733A00436861C3
:1006A0006E67652066696C616D656E74005A204FD7
:1006B0006666736574203A20007A5F6D61783A202F
:1006C000007A5F6D696E3A20005A204F6666736546
:1006D00074005A204F6666736574206F6B006C63FC
:1006E0006420636F6E74726173742076616C7565DB
:1006F0003A2000486F74656E64206F666673657497
:10070000733A007A5F6D61783A20007A5F6D696EA6
:100710003A2000795F6D61783A2000795F6D696EEB
:100720003A2000785F6D61783A2000785F6D696EDD
:100730003A2000205A3A0020593A0020436F756E43
:100740007420583A200020453A00205A3A00205997
:100750003A00583A004649524D574152455F4E4182
:100760004D453A4D61726C696E2056313B20537095
:1007700072696E7465722F6772626C206D61736846
:10078000757020666F722067656E36204649524D3F
:10079000574152455F55524C3A68747470733A2F02
:1007A0002F6769746875622E636F6D2F4D61726C6F
:1007B000696E4669726D776172652F4D61726C6901
:1007C0006E2050524F544F434F4C5F564552534941
:1007D0004F4E3A312E30204D414348494E455F54EB
:1007E0005950453A4D656E64656C204558545255D4
:1007F0004445525F434F554E543A32205555494473
:100800003A30303030303030302D303030302D30E4
:100810003030302D303030302D30303030303030DE
:1008200030303030300A004D656E64656C204F66A4
:10083000662E004D656E64656C2072656164792E6C
:100840000042656420646F6E652E0020423A0020ED
:10085000453A00543A004265642048656174696E07
:10086000672E0048656174696E6720646F6E652E3F
:100870000020573A0020453A00543A004865617418
:10088000696E672E2E2E002042403A0020403A002A
:10089000202F003A00205400202F0020423A002050
:1008A0002F006F6B20543A002569206D696E2C2053
:1008B00025692073656300456E642066696C652058
:1008C0006C69737400426567696E2066696C6520A7
:1008D0006C697374004E6F206D6F76652E004D65E8
:1008E0006E64656C2072656164792E005265737563
:1008F0006D696E67207072696E740057616974204B
:10090000666F7220757365722E2E2E00536C6565AE
:10091000702E2E2E00FFFFFF9A59A34300002043A4
:10092000000048430000A0400000A040000000403C
:1009300000000000000000000000000000000000B7
:1009400000000000000000009A59A343000020436B
:1009500000004843256920686F757273202569205F
:100960006D696E7574657300446F6E652070726991
:100970006E74696E672066696C650053544F505001
:1009800045442E20005072696E7465722073746F36
:10099000707065642064756520746F206572726F75
:1009A00072732E2046697820746865206572726FB4
:1009B0007220616E6420757365204D393939207459
:1009C0006F20726573746172742E202854656D7087
:1009D00065726174757265206973207265736574E0
:1009E0002E205365742069742061667465722072CC
:1009F000657374617274696E6729004E6F204C696B
:100A00006E65204E756D626572207769746820632B
:100A10006865636B73756D2C204C617374204C6931
:100A20006E653A20004E6F20436865636B73756D89
:100A30002077697468206C696E65206E756D6265DB
:100A4000722C204C617374204C696E653A200063EF
:100A50006865636B73756D206D69736D6174636830
:100A60002C204C617374204C696E653A20004C69EF
:100A70006E65204E756D626572206973206E6F74AD
:100A8000204C617374204C696E65204E756D6265F3
:100A9000722B312C204C617374204C696E653A20A6
:100AA000004D31313000446F6E6520736176696EA0
:100AB000672066696C652E006F6B004D323900202F
:100AC00020506C616E6E6572427566666572427921
:100AD0007465733A20002046726565204D656D6F20
:100AE00072793A20004D617220313920323031352F
:100AF00000436F6D70696C65643A2000286E6F6EFC
:100B0000652C2064656661756C7420636F6E666920
:100B1000672900207C20417574686F723A20004D6F
:100B2000617220313920323031352031303A34365B
:100B30003A353200204C61737420557064617465DD
:100B4000643A2000312E302E32004D61726C696E95
:100B50000020536F66747761726520526573657407
:100B600000205761746368646F6720526573657411
:100B7000002042726F776E206F7574205265736526
:100B800074002045787465726E616C2052657365DF
:100B90007400506F776572557000737461727400E1
:100BA0002200656E717565696E6720220020746F82
:100BB0006F206C6F6E6720657874727573696F6EE5
:100BC0002070726576656E7465640020636F6C6476
:100BD00020657874727573696F6E207072657665C2
:100BE0006E746564007C3C3E5E2B3D3F2F5B5D3B3D
:100BF0002C2A225C0045303A20005A3A2000593A0B
:100C00002000583A20004D53312C4D53322050696A
:100C10006E730A0024F404D9201BC40C5C0E9804E3
:100C2000C4095F0265077101F405F900FB04B30014
:100C300048048700C10369005803550003034500B9
:100C4000BE023A008402310053022A002902250024
:100C500004022000E4011C00C8011900AF011700C4
:100C6000980114008401130071011000610110004B
:100C700051010E0043010D0036010B002B010B004A
:100C800020010B00150109000C01090003010800F7
:100C9000FB000800F3000800EB000700E40006007A
:100CA000DE000600D8000600D2000600CC000500D9
:100CB000C7000500C2000500BD000400B900040023
:100CC000B5000400B1000400AD000400A900040058
:100CD000A5000300A20003009F0004009B00030086
:100CE00098000300950002009300030090000300A9
:100CF0008D0002008B0003008800020086000200C5
:100D000084000300810002007F0002007D000200D9
:100D10007B000200790002007700010076000200EB
:100D20007400020072000100710002006F000200F6
:100D30006D0001006C0002006A0001006900020001
:100D40006700010066000100650001006400020008
:100D50006200010061000100600001005F0002000C
:100D60005D0001005C0001005B0001005A00010011
:100D70005900010058000100570001005600010011
:100D80005500010054000100530000005300010011
:100D90005200010051000100500001004F0001000D
:100DA0004E0000004E0001004D0001004C0001000B
:100DB0004B0000004B0001004A0001004900010007
:100DC0004800000048000100470001004600000004
:100DD00046000100450000004500010044000100FC
:100DE00043000000430001004200000042000100F7
:100DF0004100000041000100400001003F000000F0
:100E00003F0001003E0000003E0001003D000000E8
:100E10003D0001003C0000003C0000003C000100DF
:100E20003B0000003B0001003A0000003A000100D6
:100E300039000000390001003800000038000000CF
:100E400038000100370000003700010036000000C4
:100E500036000000360001003500000035000000BB
:100E600035000100340000003400000034000100AF
:100E700033000000330000003300010032000000A6
:100E8000320000003200010031000000310000009B
:100E9000310001003000000030000000300001008F
:100EA0002F0000002F0000002F0000002F00010085
:100EB0002E0000002E0000002E0001002D0000007A
:100EC0002D0000002D0000002D0001002C0000006E
:100ED0002C0000002C0000002C0001002B00000062
:100EE0002B0000002B0000002B0001002A00000056
:100EF0002A0000002A0000002A000100290000004A
:100F0000290000002900000029000000290001003C
:100F10002800000028000000280000002800000031
:100F20002800010027000000270000002700000023
:100F30002700000027000100260000002600000016
:100F40002600000026000000260001002500000009
:100F500025000000250000002500000025000000FD
:100F600025000100240000002400000024000000EF
:100F700024000000240001002300000023000000E2
:100F800023000000230000002300000023000000D5
:100F900023000100220000002200000022000000C7
:100FA00022000000220000002200010021000000B9
:100FB00021000000210000002100000021000000AD
:100FC000210000002100010020000000200000009E
:100FD0002000000020000000200000002000000091
:100FE00020000000200001001F0000001F00000082
:100FF0001F0000001F0000001F0000001F00000075
:101000001F0001001E0000001E0000001E00000066
:101010001E00000024F4D43050C38E20C2A240171A
:10102000828B7011127A910D816CD90AA861E10846
:10103000C7586607615143061E4B5D05C145A704AD
:101040001A411104093D9803713931034036DB021E
:1010500065339102D4305402802E1D02632CEE01C0
:10106000752AC501B028A001102781018F256401D0
:101070002B244B01E0223401AC211F018D200D01F6
:10108000801FFC00841EED00971DDF00B81CD200FD
:10109000E61BC600201BBC00641AB200B219A800EF
:1010A0000A19A0006A189900D117910040178B0007
:1010B000B516840031167E00B31579003A15730019
:1010C000C7146F0058146A00EE136600881363009B
:1010D00025135E00C7125B006C12570015125400F6
:1010E000C111510070114F0021114B00D610490061
:1010F0008D1047004610440002104200C00F40000F
:10110000800F3E00420F3C00060F3B00CB0E380024
:10111000930E37005C0E3500270E3400F30D3200BD
:10112000C10D3100900D3000600D2E00320D2D00EC
:10113000050D2C00D90C2B00AE0C2900850C2900C4
:101140005C0C2700350C27000E0C2600E80B240051
:10115000C40B2400A00B23007D0B23005A0B21009D
:10116000390B2100180B2000F80A1F00D90A1E00B5
:10117000BB0A1E009D0A1D00800A1D00630A1C0098
:10118000470A1B002C0A1B00110A1A00F7091A0053
:10119000DD091900C4091900AB09190092091700EB
:1011A0007B091800630917004C0916003609160060
:1011B000200916000A091500F5081500E0081400BA
:1011C000CC081400B8081400A408140090081300F8
:1011D0007D0812006B081300580812004608120020
:1011E0003408110023081100120811000108110031
:1011F000F0071000E0071000D0071000C007100033
:10120000B0070F00A107100091070E0083070F0021
:1012100074070F0065070E0057070E0049070E0000
:101220003B070D002E070E0020070D0013070D00D1
:1012300006070D00F9060C00ED060D00E0060C0097
:10124000D4060C00C8060C00BC060C00B0060C004E
:10125000A4060B0099060C008D060B0082060B00FD
:1012600077060B006C060B0061060A0057060B00A0
:101270004C060A0042060A0038060A002E060A003A
:1012800024060A001A060A001006090007060A00CA
:10129000FD050900F4050900EB050900E205090058
:1012A000D9050900D0050900C7050900BE050900D8
:1012B000B5050800AD050800A50509009C05080056
:1012C000940508008C050800840508007C050800CA
:1012D000740508006C050700650508005D0507003A
:1012E000560508004E0507004705070040050800A1
:1012F00038050700310507002A0507002305070008
:101300001C050600160507000F0507000805060066
:1013100002050700FB040600F5040700EE040600C2
:10132000E8040600E2040700DB040600D50406001A
:10133000CF040600C9040600C3040600BD0406006D
:10134000B7040600B1040500AC040600A6040600BC
:10135000A00405009B040600950405009004060007
:101360008A04050085040500800406007A0405004F
:1013700075040500700405006B0405006604050093
:10138000610405005C0405005704050052040500D3
:101390004D04050048040500430405003E04040014
:1013A0003A04050035040500300404002C0405004F
:1013B00027040400230405001E0404001A0404008A
:1013C00016040500110404000D04040009040500BE
:1013D0000404040000040400FC030400F8030400F7
:1013E000F4030400F0030400EC030400E803040029
:1013F000E4030400E0030400DC030400D803040059
:10140000D4030400D0030400CC030400C803030089
:10141000C5030300656E6473746F7073206869742C
:101420003A205A00205A3A00656E6473746F7073E4
:10143000206869743A20590020593A00656E647337
:10144000746F7073206869743A20580020583A000D
:10145000656E6473746F7073206869743A20004518
:1014600072723A204D415854454D50204245440037
:10147000486561746564206265642073776974638C
:10148000686564206F66662E204D415854454D5066
:101490002074726967676572656420212100457256
:1014A000723A204D494E54454D50003A20457874CB
:1014B0007275646572207377697463686564206F00
:1014C00066662E204D494E54454D50207472696712
:1014D00067657265642021004572723A204D41585B
:1014E00054454D50003A20457874727564657220F9
:1014F0007377697463686564206F66662E204D415A
:101500005854454D50207472696767657265642050
:10151000212100202D20496E76616C696420657858
:10152000747275646572206E756D6265722021003B
:1015300070012C0190012701B0012201C0011D01A1
:10154000F00118011002130130020E0160020901BE
:1015500090020401C002FF000003FA004003F500FE
:101560008003F000D003EB002004E6007004E100EB
:10157000E004DC004005D700C005D2004006CD00E5
:10158000D006C8008007C3003008BE00F008B900CC
:10159000C009B400B00AAF00B00BAA00D00CA5007F
:1015A000000EA000500F9B00C0109600501291003A
:1015B00000148C00C0158700B0178200B0197D00A0
:1015C000D01B7800001E730040206E00902269003E
:1015D000F024640040275F0090295A00E02B55005A
:1015E000102E500020304B0010324600E0334100F6
:1015F00090353C001037370070383200A0392D008C
:10160000B03A2800A03B2300603C1E00103D1900AA
:10161000903D1400103E0F00703E0A00C03E0500D1
:10162000003F0000504944204175746F74756E6529
:101630002066696E69736865642120507574207432
:101640006865206C617374204B702C204B6920619D
:101650006E64204B6420636F6E7374616E747320CC
:1016600066726F6D2061626F766520696E746F209F
:10167000436F6E66696775726174696F6E2E68007C
:10168000504944204175746F74756E6520666169B8
:101690006C6564212074696D656F75740020403A33
:1016A000006F6B20543A006F6B20423A005049445F
:1016B000204175746F74756E65206661696C656430
:1016C000212054656D706572617475726520746F48
:1016D0006F206869676800204B643A2000204B69DE
:1016E0003A2000204B703A200020436C61737369EC
:1016F000632050494420002054753A2000204B7547
:101700003A2000206D61783A2000206D696E3A2001
:101710000020643A200020626961733A20000000D2
:10172000000000000000000000007FFFE00000005B
:101730000000000000000000007000E00000000059
:101740000000000000000000630C600000000000CA
:1017500000000000000000470E2000000000000014
:101760000000000000004F0F2000000000000000FB
:1017700000000000005F0FA000000000000000005B
:10178000000000005E07A07F80003FC00000000056
:10179000410400406020FBC00079E0000000002010
:1017A000820040F020F3C00076E0000000002082BC
:1017B0000040F020EBC0007EE0000000004104008B
:1017C0004060207B80003DC0000000008208005E79
:1017D00007A07B80003BC0000000010410005F0FE9
:1017E000A0FBC00077E0000000010410004F0F20B4
:1017F000FBC00070E000000000820800470E20FFE0
:10180000C0007FE000000000410400630C603F0066
:10181000001F80000000000000007000E01E0000BB
:101820000F0000000001FFFF807FFFE00C000006BA
:101830000000000001FFFF80000000000000000029
:10184000000000000000007FFFE00000000000003A
:101850000000000000007000E00000000000000038
:10186000000000000061F8600000000000000000BF
:101870000000000041F8200000000000000000000F
:1018800000000040F0200000000000000000000008
:101890000000406020000000000000000000000088
:1018A000005801A07F80003FC000000000410400FC
:1018B0005C63A0FBC00079E0000000002082005EB5
:1018C000F7A0F3C00076E0000000002082005EF781
:1018D000A0EBC0007EE0000000004104005C63A0BB
:1018E0007B80003DC0000000008208005801A07B02
:1018F00080003BC000000001041000406020FBC0DD
:101900000077E00000000104100040F020FBC00060
:1019100070E00000000082080041F820FFC0007F56
:10192000E00000000041040061F8603F00001F80FB
:10193000000000000000007000E01E00000F00002A
:10194000000001FFFF807FFFE00C000006000000A8
:101950000001FFFF8000000059002D2D3A2D2D00C1
:10196000B02000B020001FFFFFFFFFFFFF6000005E
:10197000000001FF400000000000FF8000000000A8
:10198000007F83CF00000C303F87FF80000C301FAA
:10199000867980000C000F8C30C7838C30E78C3048
:1019A000CFC7CC31F38C30DCECEC33B98C30D86C55
:1019B0006C33198C30D06C0C33198C30D86C0C33E0
:1019C000198C30DC6C0E3B198C30CF7C079F198C46
:1019D00030C77C038F194000000000000260000047
:1019E000000000061FFFFFFFFFFFF84D32310049E6
:1019F0006E69742E2053442063617264004E6F2020
:101A000053442063617264004D3231004368616E5B
:101A100067652053442063617264005072696E747C
:101A20002066726F6D2053440053746F7020707283
:101A3000696E7400526573756D65207072696E749D
:101A4000005061757365207072696E7400436F6E2B
:101A500074726F6C00507265706172650054756EBF
:101A60006500496E666F2073637265656E00507223
:101A7000696E742066726F6D205344005072696EF7
:101A8000742066726F6D20534400F92E2E00F852B8
:101A9000656672657368004D61696E004D32340091
:101AA0004D3233202573004D383420582059205AA8
:101AB000204500526573746F7265206661696C73AE
:101AC000616665004C434420636F6E747261737489
:101AD0000046696C616D656E74004D6F74696F6E60
:101AE0000054656D7065726174757265004D616951
:101AF0006E004C434420636F6E74726173740046D1
:101B0000696C2E204469612E20320046696C2E20BB
:101B10004469612E20320046696C2E204469612E92
:101B200020310046696C2E204469612E2031004F1F
:101B30006666004F6E20004F6666004F6E200045BF
:101B400020696E206D6DB300436F6E74726F6C0010
:101B50004573746570732F6D6D0045737465707394
:101B60002F6D6D005A73746570732F6D6D005A730D
:101B7000746570732F6D6D005973746570732F6D7C
:101B80006D005973746570732F6D6D0058737465B3
:101B900070732F6D6D005873746570732F6D6D00C9
:101BA000412D7265747261637400412D72657472A7
:101BB00061637400416D6178206500416D6178203A
:101BC0006500416D6178207A00416D6178207A006E
:101BD000416D6178207900416D6178207900416D17
:101BE0006178207800416D617820780056547261E8
:101BF00076206D696E005654726176206D696E00B4
:101C0000566D696E00566D696E00566D617820657F
:101C100000566D6178206500566D6178207A005617
:101C20006D6178207A00566D6178207900566D617B
:101C300078207900566D6178207800566D617820A3
:101C4000780056652D6A65726B0056652D6A65725F
:101C50006B00567A2D6A65726B00567A2D6A657232
:101C60006B005678792D6A65726B005678792D6A0B
:101C700065726B00416363656C00416363656C0072
:101C8000436F6E74726F6C0050726568656174208A
:101C900041425320636F6E660050726568656174DF
:101CA00020504C4120636F6E66005049442D430024
:101CB0005049442D43005049442D44005049442D7F
:101CC00044005049442D49005049442D4900504991
:101CD000442D50005049442D500020FF20466163A0
:101CE000740020FF204661637400206D61783A2003
:101CF00000206D61783A2000206D696E3A20002046
:101D00006D696E3A20004F6666004F6E20004F6688
:101D100066004F6E20004175746F74656D700046EB
:101D2000616E2073706565640046616E2073706536
:101D300065640042656400426564004E6F7A7A6CA7
:101D4000652032004E6F7A7A6C652032004E6F7AD1
:101D50007A6C65004E6F7A7A6C6500436F6E7472B0
:101D60006F6C0042656400426564004E6F7A7A6C65
:101D700065004E6F7A7A6C650046616E20737065FF
:101D800065640046616E2073706565640054656D1E
:101D900070657261747572650042656400426564C5
:101DA000004E6F7A7A6C65004E6F7A7A6C650046E9
:101DB000616E2073706565640046616E20737065A6
:101DC00065640054656D7065726174757265004D6F
:101DD0006F76652061786973004D383000537769FC
:101DE00074636820706F776572206F6E004D3831B4
:101DF0000053776974636820706F776572206F662F
:101E00006600436F6F6C646F776E00507265686533
:101E100061742041425300507265686561742050BE
:101E20004C410053657420686F6D65206F66667362
:101E300065747300473238004175746F20686F6DA8
:101E400065004D38340044697361626C65207374B9
:101E5000657070657273004D61696E004D6F7665D7
:101E600020302E316D6D004D6F766520316D6D0027
:101E70004D6F76652031306D6D0050726570617206
:101E800065004578747275646572004D6F766520E3
:101E90005A004D6F76652059004D6F7665205800C9
:101EA0004D6F76652061786973004578747275644A
:101EB0006572005A00590058005072656865617477
:101EC0002041425320426564005072656865617428
:101ED0002041425320416C6C00507265686561740A
:101EE0002041425320320050726568656174204180
:101EF0004253203100507265706172650050726506
:101F00006865617420504C412042656400507265E0
:101F10006865617420504C4120416C6C00507265C2
:101F20006865617420504C412032005072656865CC
:101F3000617420504C4120310050726570617265AF
:101F4000004D363030004368616E67652066696C0D
:101F5000616D656E7400466C6F77203100466C6F62
:101F600077203100466C6F77203000466C6F772009
:101F70003000466C6F7700466C6F770046616E20CC
:101F800073706565640046616E20737065656400FA
:101F900042656400426564004E6F7A7A6C65203257
:101FA000004E6F7A7A6C652032004E6F7A7A6C65DB
:101FB000004E6F7A7A6C65005370656564005370EB
:101FC000656564004D61696E004D333030205336D5
:101FD000353920503230300A4D33303020533639C5
:101FE0003820503230300000060900FE0601890218
:101FF000FE20FFFE07FE06FE0000000600070106A9
:10200000060602008080808000800303030601032F
:10201000A0A0A00507070600FF5050F850F8505048
:102020000509090600FE2070A8A07028A8702006E7
:1020300008080600FF40A848102048540805070774
:102040000600FF6090906098906801030306020309
:102050008080800207070602FF40808080808040E9
:102060000207070602FF804040404040800505050A
:102070000600008850F8508805050506000020205D
:10208000F820200204040602FEC040408005010141
:10209000060002F8020202060200C0C0040606069C
:1020A00001001010204080800406060601006090A8
:1020B0009090906003060606010040C0404040E05A
:1020C0000406060601006090102040F00406060693
:1020D0000100F020601010E0050606060000103038
:1020E0005090F810040606060100F080E01010E0A1
:1020F0000406060601006080E09090600406060673
:102100000100F01010204040040606060100609017
:102110006090906004060606010060909070106068
:10212000020505060200C0C000C0C0020707060283
:10213000FEC0C000C04040800505050600001860D4
:10214000806018050303060001F800F80505050680
:102150000000C0300830C00407070601006090107E
:10216000604000400506060600007090A8B0807030
:10217000050606060000205088F888880506060631
:102180000000F088F08888F00406060601006090E0
:1021900080809060040606060100E090909090E038
:1021A000040606060100F080E08080F004060606C2
:1021B0000100F080E0808080040606060100609047
:1021C00080B090600406060601009090F090909018
:1021D000030606060100E040404040E00506060612
:1021E000000038101010906004060606010090A050
:1021F000C0A090900406060601008080808080F0D8
:1022000005060606000088D8A8A8888804060606E1
:10221000010090D0B09090900506060600007088EE
:1022200088888870040606060100E09090E08080AF
:102230000407070601FF609090D0B0601004060606
:10224000060100E09090E090900406060601006010
:102250009040209060050606060000F8202020200F
:1022600020040606060100909090909060040606F7
:10227000060100909090F060600506060600008858
:1022800088A8A8D888050606060000885020205097
:1022900088050606060000888850202020040606CF
:1022A000060100F010204080F0030606060100E061
:1022B00080808080E00406060601008080402010B7
:1022C00010030606060100E020202020E00503039D
:1022D0000600032050880501010600FEF8020202F4
:1022E000060204804004040406010070909070040B
:1022F00006060601008080E09090E00404040601D8
:102300000070808070040606060100101070909026
:102310007004040406010060B0C0700406060601E3
:1023200000205040E040400406060601FE60909008
:102330007010600406060601008080E09090900313
:1023400006060601004000C04040E0030808060100
:10235000FE200060202020A0400406060601008028
:1023600080A0C0A090030606060100C04040404087
:10237000E0050404060000D0A8A8880404040601AF
:1023800000E09090900404040601006090906004C6
:1023900006060601FEE09090E08080040606060135
:1023A000FE709090701010040404060100A0D0800C
:1023B0008004040406010070C030E0040606060133
:1023C000004040E04050200404040601009090903A
:1023D0007004040406010090906060050404060087
:1023E0000088A8A8500404040601009060609004CE
:1023F00006060601FE9090907090600404040601A9
:1024000000F02040F0030707060100204040804014
:1024100040200107070602FF8080808080808003C3
:102420000707060100804040204040800402020669
:10243000010350A0FFFFFFFFFFFFFFFFFFFFFFFFB4
:10244000FFFFFFFFFFFFFFFFFFFFFFFFFFFFFFFF9C
:10245000FFFFFFFFFF00000006000701060606025F
:10246000008000808080800406060601FF2070A0A6
:10247000A070200507070600FF304840F04040F8F4
:10248000050505060000A8508850A80506060600A8
:10249000008850F820F8200107070602FF8080809E
:1024A000008080800407070601FF70806090601044
:1024B000E0030101060105A0060707060000788475
:1024C00094A494847803050506010160A06000E0EF
:1024D0000505050600002850A05028040303060146
:1024E00000F01010040101060102F00607070600C3
:1024F000007884B4A4A48478040101060105F004E2
:1025000003030601026090600507070600FF202014
:10251000F8202000F803050506010140A02040E056
:10252000030505060101C0204020C0020202060288
:102530000440800405050601FF9090B0D080050698
:102540000606000078E8E868282801010106020272
:10255000800202020602FE408003050506010140DA
:10256000C04040E003050506010140A04000E00531
:102570000505060000A0502850A00508080600FF29
:1025800040C04050703078100508080600FF40C079
:102590004050680810380508080600FFC020403089
:1025A000F0307810040707060100200020608090BA
:1025B0006005070706000040202050708888050746
:1025C00007060000102020507088880507070600C5
:1025D000002050205070888805070706000028500A
:1025E00020507088880507070600005000205070B2
:1025F000888805070706000020502050708888054D
:10260000060606000078A0F0A0A0B804080806019D
:10261000FE60908080906020400407070601004023
:1026200020F080E080F00407070601002040F080E1
:10263000E080F00407070601002050F080E080F001
:102640000407070601005000F080E080F003070750
:102650000601008040E0404040E00307070601001B
:102660002040E0404040E003070706010040A0E0B2
:10267000404040E0030707060100A000E040404062
:10268000E00506060600007048E8484870040707A1
:1026900006010050A090D0B09090040707060100FA
:1026A0004020609090906004070706010020406081
:1026B0009090906004070706010020506090909071
:1026C0006004070706010050A06090909060040726
:1026D0000706010050006090909060050505060017
:1026E0000088502050880408080601FF1070B0B020
:1026F000D0D0E08004070706010040209090909021
:102700006004070706010020409090909060040745
:102710000706010020509090909060040707060182
:102720000050009090909060050707060000102070
:10273000885020202004060606010080E09090E0EA
:10274000800406060601006090A0A090A004070780
:1027500006010040200070909070040707060100F9
:102760002040007090907004070706010020500080
:102770007090907004070706010050A000709090C0
:102780007004060606010050007090907004070760
:10279000060100205020709090700504040600008F
:1027A00070A8B0780406060601FE70808070204094
:1027B00004070706010040200060B0C0700407074E
:1027C00006010020400060B0C07004070706010049
:1027D00020500060B0C07004060606010050006082
:1027E000B0C070030707060100804000C04040E011
:1027F000030707060100204000C04040E003070730
:1028000006010040A000C04040E0030606060100AB
:10281000A000C04040E004070706010030601070CF
:1028200090906004070706010050A000E09090908F
:10283000040707060100402000609090600407072D
:102840000601002040006090906004070706010028
:102850002050006090906004070706010050A0001F
:102860006090906004060606010050006090906041
:102870000505050600002000F800200404040601F8
:102880000070B0D0E00407070601004020009090DF
:10289000907004070706010020400090909070049B
:1028A000070706010020500090909070040606066D
:1028B00001005000909090700409090601FE20402C
:1028C000009090907090600408080601FE8080E0FF
:1028D0009090E080800408080601FE5000909090DF
:1028E00070906000060900FE070199032B20FFFE8F
:1028F00008FE07FE000000060000010707060200B0
:1029000080808080800080030303060104A0A0A0D3
:102910000507070600005050F850F850500507070B
:102920000600002070A07028702005070706000030
:1029300048A8502050A89005070706000040A0A016
:1029400040A8906801030306020480808003070703
:102950000601002040808080402003070706010018
:10296000804020202040800505050600018850F8A1
:1029700050880505050600012020F82020030303E8
:102980000601FF604080050101060003F803030310
:102990000601FF40E0400507070600000808102078
:1029A0004080800507070600002050888888502056
:1029B0000507070600002060A0202020F805070773
:1029C000060000708808304080F805070706000000
:1029D000F80810300888700507070600001030500E
:1029E00090F81010050707060000F880B0C80888A6
:1029F00070050707060000304080B0C888700507E2
:102A000007060000F80810102040400507070600E0
:102A10000070888870888870050707060000708835
:102A200098680810600307070601FF40E040004077
:102A3000E0400307070601FF40E0400060408004DB
:102A40000707060100102040804020100503030600
:102A50000002F800F804070706010080402010205B
:102A60004080050707060000708810202000200520
:102A70000707060000708898A8B080700507070651
:102A8000000020508888F88888050707060000F0B5
:102A90004848704848F005070706000070888080A5
:102AA000808870050707060000F04848484848F04D
:102AB000050707060000F88080F08080F80507070A
:102AC000060000F88080F08080800507070600007F
:102AD00070888080988870050707060000888888BD
:102AE000F8888888030707060100E040404040401E
:102AF000E005070706000038101010109060050769
:102B0000070600008890A0C0A0908805070706006F
:102B100000808080808080F8050707060000888894
:102B2000D8A88888880507070600008888C8A8985C
:102B300088880507070600007088888888887005DF
:102B40000707060000F08888F080808005080806E6
:102B500000FF7088888888A87008050707060000AD
:102B6000F08888F0A090880507070600007088802C
:102B700070088870050707060000F8202020202034
:102B80002005070706000088888888888870050760
:102B90000706000088888850505020050707060067
:102BA00000888888A8A8D8880507070600008888B4
:102BB000502050888805070706000088885020208C
:102BC0002020050707060000F80810204080F803C1
:102BD0000707060100E08080808080E00507070687
:102BE000000080804020100808030707060100E06D
:102BF0002020202020E00503030600042050880543
:102C000001010600FFF802020206020680400505E7
:102C10000506000070087888780507070600008020
:102C200080B0C888C8B00505050600007088808897
:102C30007005070706000008086898889868050569
:102C4000050600007088F880700507070600003050
:102C50004840F04040400507070600FE7888887825
:102C60000888700507070600008080B0C88888883B
:102C70000307070601004000C0404040E004090986
:102C80000601FE1000301010109090600507070636
:102C9000000080808890E09088030707060100C04C
:102CA0004040404040E0050505060000D0A8A8A827
:102CB00088050505060000B0C88888880505050652
:102CC000000070888888700507070600FEB0C88875
:102CD000C8B080800507070600FE689888986808D5
:102CE00008050505060000B0C880808005050506BA
:102CF000000070807008F00507070600004040F0F3
:102D00004040483005050506000088888898680519
:102D100005050600008888505020050505060000BE
:102D20008888A8A85005050506000088502050880E
:102D30000507070600FE888898680888700505055D
:102D4000060000F8102040F8040707060100304094
:102D500020C020403001070706020080808080806C
:102D60008080040707060100C02040304020C005D5
:102D7000030306000448A8900000000100000000C2
:102D80000001000000000001000000000001000040
:102D90000000000100000000000100000000000130
:102DA0000000000000010000000000010000000021
:102DB0000001000000000001000000000001000010
:102DC0000000000100000000000100000000000100
:102DD00000000000000100000000000100000000F1
:102DE00000010000000000010000000000010000E0
:102DF00000000001000000000001000000000001D0
:102E000000000000000100000000000100000000C0
:102E100000010000000000010000000000010000AF
:102E2000000000010000000000010000000000019F
:102E30000000000000010000000000010000000090
:102E400000060000010707060200800080808080E5
:102E5000800507070600FF2078A0A0A078200507BE
:102E600007060000304840E04048B0050505060070
:102E70000088705070880508080600FF8888502078
:102E8000F820202001070706020080808000808053
:102E9000800508080600FF7080E09048380870033D
:102EA0000101060107A00507070600007088A8C8F1
:102EB000A888700406060601017090B05000F00664
:102EC0000505060000244890482404020206010279
:102ED000F010040101060103F00507070600007069
:102EE00088E8C8C88870050101060007F8030303D5
:102EF00006010440A0400506060600002020F82038
:102F000020F804050506010360902040F004050543
:102F1000060103E0106010E0020202060206408093
:102F20000506060600FF888888C8B08005070706E2
:102F3000000078E8E86828282801010106020380DB
:102F40000202020602FE408003050506010340C09E
:102F50004040E00406060601016090906000F00623
:102F6000050506000090482448900609090600FF60
:102F700040C04040E40C143C040609090600FF4030
:102F8000C04040E81404081C0509090600FFC020E1
:102F90004020C818287808050707060000200020F0
:102FA000204088700508080600004020708888F8D6
:102FB00088880508080600001020708888F888882E
:102FC0000508080600002050708888F888880508E1
:102FD0000806000048B0708888F888880508080648
:102FE00000005000708888F88888050808060000EE
:102FF0002050708888F888880607070600003C5033
:10300000909CF0909C0509090600FE7088808080E5
:103010008870204005080806000040F88080F08095
:1030200080F805080806000010F88080F08080F81D
:1030300005080806000020F88080F08080F8050868
:103040000806000050F88080F08080F80308080629
:1030500001008040E040404040E0030808060100D5
:103060002040E040404040E003080806010040A046
:10307000E040404040E0030808060100A000E040B6
:10308000404040E0050707060000F04848E848488F
:10309000F0050808060000285088C8A89888880508
:1030A0000808060000402070888888887005080895
:1030B00006000010207088888888700508080600BF
:1030C000002050708888888870050808060000284D
:1030D00050708888888870050808060000500070C5
:1030E000888888887005050506000088502050886B
:1030F000050707060000709898A8C8C8700508085A
:103100000600004020888888888870050808060026
:10311000001020888888888870050808060000202C
:1031200050008888888870050808060000500088CC
:103130008888888870050808060000102088885054
:1031400020202005070706000080F088F08080809E
:10315000050707060000708890A09088B005080851
:1031600006000040200070087888780508080600EE
:1031700000102000700878887805080806000020F4
:10318000500070087888780508080600002850006C
:1031900070087888780507070600005000700878E6
:1031A0008878050808060000205020700878887884
:1031B00006050506000078147C907C0507070600CC
:1031C000FE708880887020400508080600004020B6
:1031D000007088F880700508080600001020007054
:1031E00088F880700508080600002050007088F8F4
:1031F000807005070706000050007088F880700393
:103200000808060100804000C0404040E003080874
:10321000060100408000C0404040E003080806016D
:103220000040A000C0404040E0060A0A0600FEA49C
:10323000A800FC8480808084FC060A0A0600FE54F4
:103240009400FC8404040484FC050808060000289B
:103250005000B0C888888805080806000040200093
:103260007088888870040A0A0602FE3040809090B8
:103270009090909090040A0A0600FEC02010909052
:103280009090909090060707060001448C8C8480F3
:10329000403C06070706000188C4C4840408F00502
:1032A00005050600012000F80020050808060000BA
:1032B00040F0C88888987810050808060000E0F8F3
:1032C0008888888888F80505050600012030F830D0
:1032D000200508080600002070F820202020E005C6
:1032E00009090600FF2070A8A8B8888850200509A1
:1032F000090600FFE080C0B0A8A830282805090909
:103300000600FFF8A88888888888A8F8050A0A06B1
:1033100000FE205050505088A8A888700009120064
:10332000FC0A01E803D720FFFD0EFD0BFD000000A5
:1033300009000E010B0B09040080808080808080D2
:103340000000808004040409030790909090080A0C
:103350000A090000242424FF2424FF242424070B2A
:103360000B0901FF107C929050381412927C1007C8
:103370000A0A09010042A4A4481010244A4A8407FA
:103380000A0A09010060909090606294889462013A
:10339000040409040780808080030C0C0903FF20CB
:1033A0004040808080808080404020030C0C0903D6
:1033B000FF80404020202020202040408007070739
:1033C00009010310925438549210070707090101AC
:1033D000101010FE1010100204040904FEC0C040BA
:1033E00080070101090104FE020202090400C0C0B5
:1033F000070A0A0901000204040810102040408056
:10340000070A0A0901003844828282828282443893
:10341000070A0A090100103050901010101010FE19
:10342000070A0A090100384482020408102040FEFD
:10343000070A0A090100FE0204081804020284783F
:10344000070A0A090100040C14244484FE0404043D
:10345000070A0A090100FE808080F80402028478CD
:10346000070A0A0901003C408080B8C482824438BF
:10347000070A0A090100FE020404080810101010CF
:10348000070A0A09010038448244384482824438D9
:10349000070A0A09010038448282463A0202047887
:1034A000020707090400C0C0000000C0C0020909EB
:1034B0000904FEC0C0000000C0C040800509090921
:1034C0000200081020408040201008070404090171
:1034D00002FE0000FE0509090902008040201008D4
:1034E00010204080070A0A090100384482020408BB
:1034F00010100010070A0A09010038449AAAAAAA63
:10350000AA9C403C070A0A09010010282828447C8C
:1035100044828282070A0A090100F8848284F884BE
:10352000828284F8070A0A0901003C428080808078
:103530008080423C070A0A090100F8848282828264
:10354000828284F8070A0A090100FE808080F880E0
:10355000808080FE070A0A090100FE808080F880D2
:1035600080808080070A0A09010038448280808EAA
:1035700082824438070A0A09010082828282FE821E
:1035800082828282050A0A090200F8202020202077
:10359000202020F8070A0A0901003E080808080848
:1035A00008888870070A0A09010082848890A0D0E0
:1035B00088848282070A0A090100808080808080D6
:1035C000808080FE070A0A0901008282C6AA9282D0
:1035D00082828282070A0A0901008282C2A2928A3A
:1035E00086828282070A0A0901007C8282828282A4
:1035F0008282827C070A0A090100F884828284F8A8
:1036000080808080080B0B0901FF3844828282820F
:10361000828A443A01070A0A090100F884828284F6
:10362000F890888482070A0A0901007C8280807CE5
:10363000020202827C070A0A090100FE1010101023
:103640001010101010070A0A09010082828282827B
:103650008282824438070A0A090100828282444435
:103660004428282810070A0A0901008282828292CF
:10367000929292AA44070A0A090100828244281001
:103680001028448282070A0A090100828244281015
:103690001010101010070A0A090100FE0204081099
:1036A00020408080FE040C0C0903FFF080808080A5
:1036B000808080808080F0070A0A090100804040F5
:1036C00020101008040402040C0C0902FFF0101072
:1036D0001010101010101010F0070404090106104B
:1036E0002844820801010900FFFF03030309030ABC
:1036F0008040200707070901007C02027E82867A4B
:10370000070A0A090100808080BCC2828282C2BC92
:103710000707070901007C82808080827C070A0AF3
:103720000901000202027A86828282867A070707EE
:103730000901007C8282FE80827C070A0A0901005E
:103740001C22222020F820202020070A0A0901FD3F
:103750007A84848478807C82827C070A0A0901004A
:10376000808080BCC28282828282050A0A090200AD
:10377000600000E02020202020F8050D0D0902FD4A
:1037800018000038080808080808888870070A0A1E
:10379000090100808080848890B0C88482050A0A6C
:1037A000090200E02020202020202020F807070721
:1037B000090100EC92929292928207070709010098
:1037C000BCC282828282820707070901007C828252
:1037D0008282827C070A0A0901FDB8C4828282C4FF
:1037E000B8808080070A0A0901FD3A468282824633
:1037F0003A0202020707070901009C62424040406A
:10380000400707070901007C82807C02827C07094F
:10381000090901002020FC20202020221C07070786
:103820000901008282828282867A070707090100E5
:1038300082824444282810070707090100828292E7
:103840009292AA44070707090100824428102844DD
:1038500082070A0A0901FD42422424241818109004
:1038600060070707090100FE0408102040FE060B50
:103870000B0902001C20202020C0202020201C0139
:103880000C0C0904FF808080808080808080808094
:1038900080060B0B090100E0101010100C10101026
:1038A00010E007030309010762928CFFFFFFFFFF8F
:1038B000FFFFFFFFFFFFFFFFFFFFFFFFFFFFFFFF18
:1038C000FFFFFFFFFFFFFFFFFFFFFFFF00000009FB
:1038D000000E010B0B0904008080000080808080B6
:1038E00080808006080809010008789490A0A478D8
:1038F00040070A0A0901001C222020F8202060A2AB
:103900005C070606090103827C44447C82070A0A9C
:10391000090100828244287C107C101010010B0BDE
:103920000904FF8080808080008080808080040B7C
:103930000B0902FF6090806090909060109060038F
:10394000020209030BA0A00809090900013C4299E1
:10395000A5A1A599423C0507070901036090709055
:103960007800F807080809010112244890904824BB
:1039700012060404090102FC040404050101090201
:1039800004F80809090900013C42B9A5BDA9A542EE
:103990003C060101090109FC0404040903066090C6
:1039A0009060070909090101101010FE10101000A5
:1039B000FE0406060901046090106080F00406060B
:1039C00009010460902010906003030309030A209A
:1039D00040800709090901FE8282828282C6BA807C
:1039E00080070A0A0901007E8A8A8A7A0A0A0A0A74
:1039F0000A020202090404C0C00403030902FD20F4
:103A0000906003060609010440C0404040E00506FE
:103A1000060901047088887000F807080809010188
:103A20009048241212244890070A0A09010040C055
:103A3000404042E60A121A06070A0A09010040C07D
:103A400040404CF2020C101E070A0A090100609067
:103A5000201092660A121A06070A0A0901001000CD
:103A6000101020408082827C070E0E090100201079
:103A7000080010282828447C44828282070E0E0900
:103A800001000810200010282828447C44828282EB
:103A9000070E0E0901001028440010282828447C35
:103AA00044828282070D0D09010034580010282835
:103AB00028447C44828282070D0D090100282800D9
:103AC00010282828447C44828282070E0E090100B7
:103AD0001028281010282828447C44828282070A53
:103AE0000A0901001E2828284E784888888E070D6C
:103AF0000D0901FD3C42808080808080423C08248A
:103B000018070E0E09010020100800FE808080F8C2
:103B100080808080FE070E0E09010008102000FE44
:103B2000808080F880808080FE070E0E09010010E2
:103B3000284400FE808080F880808080FE070D0D84
:103B4000090100282800FE808080F880808080FEA7
:103B5000050E0E09020040201000F8202020202031
:103B6000202020F8050E0E09020010204000F82049
:103B700020202020202020F8050E0E0902002050D1
:103B80008800F82020202020202020F8050D0D0995
:103B90000200505000F82020202020202020F8078C
:103BA0000A0A09010078444242F24242424478073C
:103BB0000D0D0901003458008282C2A2928A8682C9
:103BC0008282070E0E090100201008007C8282828A
:103BD00082828282827C070E0E090100081020007A
:103BE0007C82828282828282827C070E0E090100A0
:103BF000102844007C82828282828282827C070D2D
:103C00000D0901003458007C828282828282828285
:103C10007C070D0D0901002828007C8282828282A7
:103C20008282827C07070709010182442810284408
:103C300082070C0C0901FF027C868A8A9292A2A25A
:103C4000C27C80070E0E09010020100800828282CB
:103C500082828282824438070E0E090100081020F9
:103C60000082828282828282824438070E0E09019B
:103C70000010284400828282828282828244380735
:103C80000D0D0901002828008282828282828282B0
:103C90004438070E0E0901000810200082824428D3
:103CA000101010101010070A0A0901008080FC8211
:103CB0008282FC808080060A0A0901003844444858
:103CC000D04844444458070B0B0901002010080059
:103CD0007C02027E82867A070B0B09010008102005
:103CE000007C02027E82867A070B0B0901001028F5
:103CF00044007C02027E82867A070A0A09010034A7
:103D000058007C02027E82867A070A0A090100288E
:103D100028007C02027E82867A070C0C09010010C2
:103D2000282810007C02027E82867A070707090194
:103D3000006C12127E90926C070A0A0901FD7C82C7
:103D4000808080827C104830070B0B090100201016
:103D500008007C8282FE80827C070B0B0901000830
:103D60001020007C8282FE80827C070B0B09010000
:103D7000102844007C8282FE80827C070A0A0901A6
:103D8000002828007C8282FE80827C050C0C0902BF
:103D9000008040200000E02020202020F8050C0CAE
:103DA0000902001020400000E02020202020F8051B
:103DB0000C0C0902002050880000E0202020202068
:103DC000F8050B0B09020050500000E020202020D5
:103DD00020F8070B0B090100483050083C44828250
:103DE000824438070A0A090100345800BCC28282A2
:103DF000828282070B0B090100201008007C82825E
:103E00008282827C070B0B090100081020007C8253
:103E1000828282827C070B0B090100102844007CFF
:103E200082828282827C070A0A0901003458007C5F
:103E300082828282827C070A0A0901002828007C8B
:103E400082828282827C07090909010010381000F1
:103E5000FE001038100709090901FF027C8A8A92C6
:103E6000A2A27C80070B0B09010040201000828277
:103E7000828282867A070B0B0901000810200082DB
:103E800082828282867A070B0B0901001028440087
:103E90008282828282867A070A0A09010028280023
:103EA0008282828282867A070E0E0901FD04081042
:103EB0000042422424241818109060070B0B0901BB
:103EC000FE8080B8C4828282C4B88080070D0D094C
:103ED00001FD24240042422424241818109060007C
:103EE000002100240027002A002D003000330001AB
:103EF000010000040107010A01000022002500283A
:103F0000002B002E003100340002010000050108E2
:103F1000010B01000020002300260029002C002FA7
:103F2000003200000100000301060109010505053A
:103F300005070508080808020202020A0A08080420
:103F4000040404010101010101010103030303034E
:103F5000030303040707070C0C0C0C0C0C0C0C02DD
:103F600002020206060606060606060B0B0B0B0BE4
:103F70000B0B0B01021020200808102040102040DD
:103F8000800201020108040201010204081020401D
:103F9000808040201008040201800402018040203B
:103FA0001008040201080402010102040810204064
:103FB0008001020408102040800000090A02080B5A
:103FC0000C0D0706030401000000000000000000C3
:103FD00000000000000000000000000000000000E1
:103FE000000000000011100F0000000000000000A1
:103FF00000000000000000000000000000000002BF
:10400000494E46494E4954594E414ECDCCCC3D0ABD
:10401000D7233C17B7D13877CC2B329595E6241FA0
:10402000B14F0A000020410000C84200401C462059
:10403000BCBE4CCA1B0E5AAEC59D7400293ABF3E89
:1040400056E658F4BA3E11241FBECFEFD1E2DEBFD0
:10405000CDBF00E00CBF14E0A0E0B2E0ECEAF1E17B
:1040600002E00BBF02C007900D92A83EB107D9F73E
:104070001BBE15E1A8EEB4E001C01D92AB3FB10735
:10408000E1F710E4C4E4D0E404C02297FE010F94E9
:104090007C08CC33D107C9F70E9477FF0D94CA087A
:1040A0000C940000A0E0B0E0E8E5F0E20D9499087F
:1040B000EC015B016115710519F0FB0191838083AF
:1040C000F9908F2D90E00F948008892BC9F7FDE2BD
:1040D000FF1621F4F990EE24E39405C02BE2F216CA
:1040E00009F4F990EE248E0101501040C80160E0FF
:1040F00070E443E050E062D2892BF9F48E010E5F48
:104100001F4FC80163E070E445E050E057D2892BAF
:1041100019F48E01095F1F4FA114B10419F0F501C4
:1041200011830083E0FC04C070E090E080E813C0DD
:1041300070E090E080E86FEF07C1C80168E070E4CC
:1041400043E050E03BD2892B69F4A114B10429F477
:1041500070E090E080EC6FE7F7C02296F501D18324
:10416000C083F6CF8824992440E050E060E070E0FE
:10417000EF2DE053EA30A0F5F2E0EF2A8E2D90E02B
:104180009C0128703070E2FE06C0232B79F508945C
:10419000811C911C2BC0232B19F0089481089108D5
:1041A000DB01CA0112E0880F991FAA1FBB1F1A95D5
:1041B000D1F7480F591F6A1F7B1F440F551F661FF9
:1041C000771F4E0F511D611D711D483929E9520796
:1041D00029E9620729E1720748F084E0E82A06C06D
:1041E000EE3F31F4E3FC39C098E0E92AF990C0CF02
:1041F000E53311F0E53189F529912D3219F4E0E12B
:10420000EE2A05C02B3219F081E090E003C029911D
:1042100082E090E0E22FE053EA3018F0C81BD90B9F
:104220001CC020E030E0FCE020383F075CF4C9010E
:10423000880F991F880F991F280F391F220F331FCE
:104240002E0F311DE991E053EA3068F3E4FE03C01C
:10425000309521953F4F820E931ECE2CDD24E1FE3A
:1042600007C0A114B10421F02197F501D183C083C7
:10427000CB01BA010F94E5047B018C01F3E0CF225E
:10428000DD2423E0C216D10421F417FB109517F9A1
:10429000109557016801C801B70120E030E040E007
:1042A00050E00F944504882309F44AC097FE0DC0DE
:1042B0002FE1E22E20E4F22E9094819491089394C1
:1042C000C0E2D0E000E010E012C097E3E92E90E4F5
:1042D000F92EF6CFF7012591359145915491C601FC
:1042E000B5010F9425075B016C018C1A9D0A8C1691
:1042F0009D0684F7D595C7950F5F1F4F06301105B2
:1043000029F08CEF9FEFE80EF91EF1CFC501D60121
:104310007C018D018C2D880F8D2D881F8F3F51F0D2
:10432000C601B50120E030E040E050E00F944504C4
:10433000882331F482E290E09093FA158093F91586
:104340007E2D9F2D802F612F272F392F482F562FFD
:10435000B901CA01CDB7DEB7ECE00D94B5082F92D4
:104360003F925F926F927F928F929F92AF92BF9295
:10437000CF92DF92EF92FF920F931F93CF93DF9331
:104380008C011B01EA016115710519F0FB01918394
:104390008083209749F0CE010297839728F020E090
:1043A00030E040E050E0F6C0F801A1908F018A2D86
:1043B00090E00F948008892BB9F7FDE2AF1631F435
:1043C000F801A1908F015524539407C0FBE2AF166A
:1043D00019F4F801A1908F015524209719F0C031EC
:1043E000D105C1F4F0E3AF1679F4F8018081883784
:1043F00011F0883549F4F801A1800E5F1F4FF2E0FB
:104400005F2AC0E1D0E006C0209721F480E3A8161F
:10441000E9F427C0C830D10531F1C930D10524F401
:10442000C230D10531F50CC0CA30D10589F0C03198
:10443000D105F9F4C12CD12CE12CB8E0FB2E28C019
:10444000C12CD12CE12CA0E4FA2E22C0CAE0D0E08D
:10445000FCECCF2EFCECDF2EFCECEF2EFCE0FF2E74
:1044600017C0C8E0D0E0C12CD12CE12CE0E1FE2E39
:104470000FC09E01442737FD4095542F60E070E047
:1044800080E090E80F943D08C901DA016C017D01DC
:1044900020E030E040E050E060E03E01882477FC1E
:1044A0008094982C70EDB72EBA0CE9E0EB1570F4FF
:1044B0008A2D81548A3118F499ECB92E06C08A2DC0
:1044C00081568A3150F589EAB82EBA0C8B2D90E0CE
:1044D0008C179D0714F56F3FE1F0C216D306E40672
:1044E000F506B0F0CA01B901A40193010F94F707D2
:1044F0009B01AC012B0D311D411D511D2130F0E000
:104500003F07F0E04F07F0E85F0710F461E001C0FB
:104510006FEFF801A1908F01C5CF2114310481F014
:10452000662331F001501040F1011183008308C06F
:1045300051FE1AC002501040F1011183008314C0D3
:1045400067FF12C050FC05C02FEF3FEF4FEF5FE752
:1045500004C020E030E040E050E882E290E0909338
:10456000FA158093F91516C050FE08C05095409575
:10457000309521953F4F4F4F5F4F0CC057FF0AC0FA
:1045800082E290E09093FA158093F9152FEF3FEFB8
:104590004FEF5FE7B901CA01DF91CF911F910F91F2
:1045A000FF90EF90DF90CF90BF90AF909F908F9053
:1045B0007F906F905F903F902F900895FB01DC01FA
:1045C0004150504088F08D9181341CF08B350CF4B3
:1045D000805E659161341CF06B350CF4605E861B67
:1045E000611171F3990B0895881BFCCFFB01DC016D
:1045F0004150504048F005900D920020C9F701C08D
:104600001D9241505040E0F70895FB01559155230C
:10461000A9F0BF01DC014D9145174111E1F759F4B3
:10462000CD010590002049F04D9140154111C9F38D
:10463000FB014111EFCF81E090E001970895FB016C
:10464000DC0104C08D910190801921F4415050404B
:10465000C8F7881B990B0895FB01DC0102C001908B
:104660000D9241505040D8F70895FB01DC018D9127
:1046700081341CF08B350CF4805E619161341CF048
:104680006B350CF4605E861B611189F3990B0895FC
:10469000FB01DC010D900020E9F7119701900D92CC
:1046A0000020E1F70895FC018191861721F088230D
:1046B000D9F7992708953197CF010895FB01DC01BF
:1046C0008D91019080190110D9F3990B0895FB0188
:1046D000DC0101900D920020E1F70895FB01DC015F
:1046E0004150504030F08D910190801919F4002014
:1046F000B9F7881B990B0895FB01DC01415050402C
:1047000048F001900D920020C9F701C01D92415060
:104710005040E0F70895AEE0B0E0E1E9F3E20D9437
:10472000A1080E891F898EE08C831A8309838FEF7D
:104730009FE79E838D839E01265E3F4FCE010196AB
:10474000688D798DA9010AD02F813885020F131F3A
:10475000F80110822E96E4E00D94BD08ABE0B0E0C5
:10476000E4EBF3E20D9493083C012B015A01FC01A8
:1047700017821682838181FD03C06FEF7FEFB9C17D
:104780009AE0892E1E010894211C311CF30123811B
:10479000F20123FD859123FF81912F01882309F4E4
:1047A000A5C1853239F423FD859123FF81912F0125
:1047B000853221F490E0B301B7D1E8CF982FFF24E0
:1047C000EE249924FFE1FF15D0F09B3269F09C3272
:1047D00028F4903259F0933291F40EC09D3249F092
:1047E000903369F441E024C052E0F52A84E0F82ACD
:1047F00028C098E0F92A25C0E0E1FE2A22C0F7FC93
:1048000029C0892F80538A3070F4F6FE05C0989C29
:10481000902C1124980E15C0E89CE02C1124E80E71
:10482000F0E2FF2A0EC09E3229F4F6FC5FC140E49C
:10483000F42A07C09C3619F450E8F52A02C09836CD
:1048400049F4F20123FD959123FF91912F019923C2
:1048500009F0B8CF892F8554833018F08052833007
:1048600038F444E050E0A40EB51E5FE359830FC056
:10487000933631F0933779F0933509F052C01FC069
:10488000F5018081898342E050E0A40EB51E6101EC
:1048900001E010E011C0F501C080D180F6FC03C03A
:1048A0006FEF7FEF02C0692D70E042E050E0A40E90
:1048B000B51EC6012ED18C015FE7F52213C0F501AC
:1048C000C080D180F6FC03C06FEF7FEF02C0692D7E
:1048D00070E042E050E0A40EB51EC6010FD18C017D
:1048E00050E8F52AF3FE06C018C080E290E0B3015C
:1048F0001BD1EA948E2D90E008171907B0F30DC074
:10490000F601F7FC8591F7FE81916F0190E0B3010C
:104910000BD1E110EA94015010400115110581F707
:10492000E2C0943611F0993661F5F7FE08C0F50142
:10493000208131814281538184E090E00AC0F501F9
:10494000808191819C01442737FD4095542F82E05E
:1049500090E0A80EB91E9FE6F92257FF09C05095B6
:104960004095309521953F4F4F4F5F4FE0E8FE2A2D
:10497000CA01B901A1012AE030E002D1D82ED21833
:104980003FC0953729F41F2D1F7E2AE030E01DC05F
:104990001F2D197F9F3661F0903720F4983509F06C
:1049A000A5C00FC0903739F0983709F09FC004C0F8
:1049B00028E030E00AC0106114FD146020E130E00E
:1049C00004C014FD166020E132E017FF08C0F501B5
:1049D000608171818281938144E050E008C0F501DB
:1049E00080819181BC0180E090E042E050E0A40E23
:1049F000B51EA101C5D0D82ED2188FE7F82EF1220E
:104A0000F6FE0BC05EEFF522D91438F4F4FE07C0B1
:104A1000F2FC05C08FEEF82202C01D2D01C0192D39
:104A2000F4FE0DC0FE01ED0DF11D8081803319F4FF
:104A300099EEF92208C01F5FF2FE05C003C08F2D5A
:104A4000867809F01F5F0F2DF3FC13C0F0FE0EC037
:104A50001E1510F09D2C0AC09D2C9E0C911A1E2D27
:104A600005C080E290E0B3015FD01F5F1E15C8F360
:104A700004C01E1510F4E11A01C0EE2404FF0EC09C
:104A800080E390E0B30150D002FF1BC001FD03C0E2
:104A900088E790E00EC088E590E00BC0802F867814
:104AA00081F001FF02C08BE201C080E2F7FC8DE2E1
:104AB00090E0B30139D005C080E390E0B30134D079
:104AC0009A94D914C8F3DA94F101ED0DF11D8081A7
:104AD00090E0B30129D0DD20B1F705C080E290E07D
:104AE000B30122D0EA94EE20C9F750CEF3016681DB
:104AF0007781CB012B96E2E10D94AF08FC01059084
:104B0000615070400110D8F7809590958E0F9F1FCF
:104B10000895FC016150704001900110D8F7809514
:104B200090958E0F9F1F08950F931F93CF93DF9340
:104B30008C01EB018B8181FF1BC082FF0DC02E8198
:104B40003F818C819D812817390764F4E881F981C0
:104B50000193F983E88306C0E885F985802F1995CC
:104B6000892B31F48E819F8101969F838E8302C0B1
:104B70000FEF1FEFC801DF91CF911F910F910895A3
:104B8000FA01AA27283051F1203181F1E8946F937E
:104B90006E7F6E5F7F4F8F4F9F4FAF4FB1E03ED024
:104BA000B4E03CD0670F781F891F9A1FA11D680FC2
:104BB000791F8A1F911DA11D6A0F711D811D911DF5
:104BC000A11D20D009F468943F912AE0269F11246A
:104BD0003019305D3193DEF6CF010895462F4770CE
:104BE000405D4193B3E00FD0C9F7F6CF462F4F7029
:104BF000405D4A3318F0495D31FD4052419302D087
:104C0000A9F7EACFB4E0A69597958795779567952C
:104C1000BA95C9F700976105710508959B01AC012C
:104C20000A2E06945795479537952795BA95C9F753
:104C3000620F731F841F951FA01D0895FC0112822F
:104C400013820895FC018381882311F081E082831F
:104C50000895FC018281811112820895CF93DF9320
:104C6000DC01FC01EB55FE4F808191810097C9F179
:104C7000019791838083ED01CC5ADF4FFD01ED5800
:104C8000FF4F8BE1019009928150E1F7FD01EE5A4F
:104C9000FF4FAF58BF4F8D919C911197A157B040D6
:104CA00091838083FD01ED58FF4F20E030E0AD019E
:104CB0004B555E4F10C02F5F3F4FEF01DF015F96F6
:104CC0008BE10D9009928150E1F7858D968D329799
:104CD00091838083B196DA018D919C9128173907D1
:104CE00050F3DF91CF910895FC018EEA94E0918317
:104CF00080838781882321F0CF0104960C94E1867C
:104D00000895CF92DF92EF92FF920F931F93DF935C
:104D1000CF93CDB7DEB76F970FB6F894DEBF0FBE57
:104D2000CDBF8C016B01095A1F4FD8018C910755DB
:104D30001040882321F42FE2E22EF12C03C090E5ED
:104D4000E92EF12CE00EF11E8EEA94E09A8389831D
:104D50001C821B8218861D82B7016C5F7F4FCE01BB
:104D60000596A60121E00E94CD8D882391F5E7E804
:104D7000F5E0949108C08091C00085FFFCCF90932E
:104D8000C600319694919923B1F7EBE3F1E0949149
:104D900008C08091C00085FFFCCF9093C60031967B
:104DA00094919923B1F709C08091C00085FFFCCF91
:104DB0000894C11CD11C9093C600F60190819923E0
:104DC00099F78091C00085FFFCCF8AE08093C600F0
:104DD0005AC0F801EB55FE4F208131812A30310550
:104DE00008F040C02F5F3F4F318320832150304077
:104DF000F90185E0EE0FFF1F8A95E1F7E21BF30B47
:104E0000ED58FF4FE00FF11F13C0AF01415E5F4F40
:104E1000BF018BE1DB010D90BD01DA010D92AD0107
:104E20008150C1F7929182913296968F858F7F97AC
:104E300021503040BFEF2E3F3B0739F7D801AD5826
:104E4000BF4FF70134968BE101900D928150E1F74D
:104E50000F581F4FF70182819381D8018D939C9346
:104E600001571040D801AC5ABF4FFE0135968BE177
:104E700001900D928150E1F70E5A1F4F8B819C815A
:104E8000F80191838083CE0101962EDF6F960FB6D5
:104E9000F894DEBF0FBECDBFCF91DF911F910F9170
:104EA000FF90EF90DF90CF900895EF92FF920F93D5
:104EB0001F938C013EECE32E31E0F32EE80EF91E39
:104EC000C7010E949486C7010E94E186F801118201
:104ED00010821F910F91FF90EF900895CF92DF9273
:104EE000EF92FF920F931F93CF93DF937C016B019F
:104EF000DB010D900020E9F78D0101501040061BE9
:104F0000170BEEECF1E0EE0EFF1ED7011C92E2E370
:104F1000FEEFEE0EFF1ECB016EE470E0C4DBEC0191
:104F2000009731F4F8013197EC0DFD1D86010CC09E
:104F300060E270E0B8DB8C010F5F1F4FCE016AE2C8
:104F400070E0B1DBFC0131978DE081838AE08283E0
:104F50001382C70186539E4FB8010E94DE8E8EECED
:104F600091E0E80EF91ED7018C91882319F1E0E851
:104F7000F5E0949108C08091C00085FFFCCF90932C
:104F8000C600319694919923B1F7E5E6F1E094914A
:104F900008C08091C00085FFFCCF9093C600319679
:104FA00094919923B1F78091C00085FFFCCF8AE0EE
:104FB0008093C600DF91CF911F910F91FF90EF90EA
:104FC000DF90CF900895CF93DF93EC018B818823FE
:104FD00009F43BC0EDE8F1E0949108C08091C00075
:104FE00085FFFCCF9093C600319694919923B1F739
:104FF000CD57DD4F488159816A817B81C358D240AA
:105000008CE695E02AE030E00E94C23AEBE8F1E05D
:10501000949108C08091C00085FFFCCF9093C6009A
:10502000319694919923B1F7C558DD4F4881598144
:105030006A817B818CE695E02AE030E00E94C23AEA
:105040008091C00085FFFCCF12C0EBE7F1E09491A6
:1050500008C08091C00085FFFCCF9093C6003196B8
:1050600094919923B1F78091C00085FFFCCF8AE02D
:105070008093C600DF91CF9108952F923F924F9277
:105080005F926F927F928F929F92AF92BF92CF92D8
:10509000DF92EF92FF920F931F93DF93CF93CDB7E1
:1050A000DEB7AC970FB6F894DEBF0FBECDBF5C0184
:1050B0004B01FC018381882309F43BC1C501825364
:1050C0009E4F0E94E186F50112821A8A1D8A198A72
:1050D000188A8EEA94E09F878E875EE4C52ED12CD5
:1050E000CA0CDB1C2FE230E0A20EB31EF601B18227
:1050F000A08221ED3FEFA20EB31EF40180818F321A
:1051000009F08DC0C4016FE270E0CDDA7C01089433
:10511000E11CF11C3E010894611C711C260142E156
:10512000242E312C2C0E3D1E75C0C7016FE270E09D
:10513000BADA6C01009709F480C0E816F90608F0A5
:105140007CC08C010E191F09C301B701A801D4DA74
:10515000060D171DF8011082F30107C08091C000F1
:1051600085FFFCCF31969093C60090819923B1F7CB
:105170008091C00085FFFCCFFAE0F093C600F201F9
:10518000608171816115710519F460E070E002C001
:105190006C5F7F4FC101A30121E00E94CD8D882368
:1051A00071F5E9ECF1E0949108C08091C00085FFB1
:1051B000FCCF9093C600319694919923B1F7FE01EC
:1051C000319607C08091C00085FFFCCF3196909347
:1051D000C60090819923B1F7E7ECF1E0949108C003
:1051E0008091C00085FFFCCF9093C60031969491CA
:1051F0009923B1F78091C00085FFFCCF94C02EE0C9
:1052000030E02C0F3D1FF20131832083760108949A
:10521000E11CF11CE114F10409F087CF0BC080E51B
:1052200090E0A80EB91EF601B182A08220EB3FEFFC
:10523000A20EB31ED82C092D02C0DE2C0F2D8EE439
:1052400090E0A80EB91EF5018081918122EB3FEF1D
:10525000A20EB31E009719F480E090E001C00496FE
:105260006D2D702F0E94998E882371F1E9EBF1E08A
:10527000949108C08091C00085FFFCCF9093C60038
:10528000319694919923B1F78D2D902F9C01F901BE
:1052900007C08091C00085FFFCCF31969093C60077
:1052A00090819923B1F78091C00085FFFCCF8AE0FF
:1052B0008093C60083E892E0A80EB91EF501108223
:1052C00011821282138232C0E1EAF1E0949108C0A7
:1052D0008091C00085FFFCCF9093C60031969491D9
:1052E0009923B1F78D2D902F9C01F90107C0809172
:1052F000C00085FFFCCF31969093C6009081992322
:10530000B1F7EFE9F1E0949108C08091C00085FF0A
:10531000FCCF9093C600319694919923B1F7809178
:10532000C00085FFFCCF8AE08093C600CE010E96B8
:10533000DBDCAC960FB6F894DEBF0FBECDBFCF91CD
:10534000DF911F910F91FF90EF90DF90CF90BF9072
:10535000AF909F908F907F906F905F904F903F9015
:105360002F900895BF92CF92DF92EF92FF920F930A
:105370001F93CF93DF938C01EB018FE28993EE248F
:10538000E394FF2475EAC72E71E0D72EC00ED11E1C
:105390006FE1B62E14C0FB9CC00111248D589F4FA5
:1053A000800F911FBE010E94F18602C02196E394F6
:1053B0008881882319F08CE88E15C0F7F3942F2D7F
:1053C00030E0F601808191812817390720F3E7FC4E
:1053D00007C0C80182539E4FBE010E94F18601C0E2
:1053E0001882DF91CF911F910F91FF90EF90DF9086
:1053F000CF90BF900895EF92FF920F931F93CF939A
:10540000DF938C01FC01138286A9882321F0C80157
:10541000C3960E94E186E7EAEE2EE1E0FE2EE00E62
:10542000F11EC70160E045E30E949084882309F5DE
:10543000E7E8F5E0949108C08091C00085FFFCCFBB
:105440009093C600319694919923B1F7E2E1F3E08D
:10545000949108C08091C00085FFFCCF9093C60056
:10546000319694919923B1F78091C00085FFFCCFCC
:105470007DC0E801C455DE4FCE01B70141E00E9476
:105480006F8F882341F5CE01B70140E00E946F8FF6
:10549000882309F5E0E8F5E0949108C08091C00008
:1054A00085FFFCCF9093C600319694919923B1F774
:1054B000EFEFF2E0949108C08091C00085FFFCCF2F
:1054C0009093C600319694919923B1F78091C000D2
:1054D00085FFFCCF4BC0C801C396BE010E94D38993
:1054E000882309F5E0E8F5E0949108C08091C000B8
:1054F00085FFFCCF9093C600319694919923B1F724
:10550000EFEEF2E0949108C08091C00085FFFCCFDF
:105510009093C600319694919923B1F78091C00081
:1055200085FFFCCF23C081E0F8018383E7E8F5E045
:10553000949108C08091C00085FFFCCF9093C60075
:10554000319694919923B1F7E4EEF2E0949108C07A
:105550008091C00085FFFCCF9093C6003196949156
:105560009923B1F78091C00085FFFCCF8AE080933A
:10557000C600D801AC5ABF4FF801F3968BE10190F9
:105580000D928150E1F7F80181A992A90E5A1F4F9F
:10559000F8019183808302551040C8018F96025B09
:1055A0001F4FF80191838083DF91CF911F910F915D
:1055B000FF90EF9008952F923F924F925F926F92DB
:1055C0007F929F92AF92BF92CF92DF92EF92FF9223
:1055D0000F931F93DF93CF93CDB7DEB7CC55D04059
:1055E0000FB6F894DEBF0FBECDBF6C01662309F085
:1055F000E3C027E832E0C20ED31ED6018C91E9E762
:10560000FDEFCE0EDF1E882309F4E7C02FE732E05E
:10561000C20ED31ED601ED90FD900D911C91E1E8D4
:10562000FDEFCE0EDF1E0E94BBFCE616F706080754
:10563000190708F4D2C0C0C0C601DDDED60113963A
:105640008C91882309F4C9C000D000D0EDB7FEB713
:1056500031967E010894E11CF11CADB7BEB71296DD
:10566000FC92EE9211978CE591E093838283D601B0
:105670009D968D919C919E97958384834CD88701AC
:10568000EDB7FEB736960FB6F894FEBF0FBEEDBF6E
:1056900057010AC0D8018C91992787FD90950F94E6
:1056A0008808F80181938F01F50101900020E9F746
:1056B0003197EA19FB09802F8E198E175CF313E3DB
:1056C000A12EB12CAC0CBD1CC50140E050E060E047
:1056D00070E00E94CA859924BDE3EB2EF12CEC0EFC
:1056E000FD1E2E010894411C511CAFE16A2E712C45
:1056F0006C0E7D1EF5E52F2EF1E03F2E42C0D80145
:105700008C9190E00F948808F80181938F01D70164
:105710000D900020E9F71197AE19BF09802F8E195F
:105720008A176CF327968FAD27978E3751F1C701F3
:10573000B20145E050E00E946E23009711F500D0C1
:1057400000D0EDB7FEB73196ADB7BEB712967C92DA
:105750006E92119733822282558244820E948B235B
:10576000EDB7FEB736960FB6F894FEBF0FBEEDBF8D
:10577000C3010E94544681E591E00E94E06A9924A9
:105780009394C501B70140E050E00E94F2881816DA
:1057900014F48701BCCF992041F48FEF9FEFD6011D
:1057A0009E969C938E939D9718C0F60185A596A50D
:1057B000019696A785A711C027E832E0C20ED31E36
:1057C000D6011C92E9E7FDEFCE0EDF1ED60113963F
:1057D0008C91882309F430CF37CFC45ADF4F0FB6EE
:1057E000F894DEBF0FBECDBFCF91DF911F910F9117
:1057F000FF90EF90DF90CF90BF90AF909F907F9001
:105800006F905F904F903F902F9008952F923F920E
:105810004F925F926F927F928F929F92AF92BF92C0
:10582000CF92DF92EF92FF920F931F93DF93CF936C
:10583000CDB7DEB7CF58D0400FB6F894DEBF0FBE5D
:10584000CDBF8C012B016A01C757DF4F39832883F5
:10585000C958D04084E090E0C80ED91EF801729675
:10586000C957DF4FF983E883C758D04045E0642E1D
:10587000712C600E711ECA57DF4F1882C658D04077
:1058800036E6E32EF12CEC0EFD1EC7010B96C55734
:10589000DF4F99838883CB58D04028E8822E22E0BE
:1058A000922E800E911E9AE8A92E92E0B92EA00E9B
:1058B000B11E87E4282E312C2C0E3D1EF1013496AA
:1058C000C357DF4FF983E883CD58D040E7E8F5E0D0
:1058D0008491C157DF4F8883CF58D0404CC1F70126
:1058E0008385282F30E0A90148715070403151055F
:1058F00009F04FC1F401808191818130910509F453
:1059000048C1029709F445C1F701DE011196908163
:10591000903239F08E2F8E19883011F48EE28D93EB
:105920009D933196C557DF4F88819981CB58D040E0
:10593000E817F90761F71C921E86F201808188231F
:1059400031F4CE010E9660E072E00E944823CE0151
:105950000E96B2010E944823CE010E96BE016F5FE3
:105960007F4F0E944823CE010E9660E072E00E94B5
:1059700048231CA61FA61BA61AA68EEA94E099A788
:1059800088A7CE018C96B601AE014F5F5F4F21E034
:105990000E94CD8D882309F03FC0F4018081918160
:1059A000892BD1F5C157DF4F9881CF58D040E7E818
:1059B000F5E008C08091C00085FFFCCF9093C60041
:1059C000319694919923B1F7E2E0F2E007C080911B
:1059D000C00085FFFCCF31969093C600908199233B
:1059E000B1F78091C00085FFFCCFFAE0F093C600CC
:1059F000FE01319607C08091C00085FFFCCF319633
:105A00009093C60090819923B1F78091C00085FFE3
:105A1000FCCF8AE08093C600C357DF4FA881B981CD
:105A2000CD58D040FE01BC968BE101900D92815083
:105A3000E1F78AA59BA5F101938382838EEA94E026
:105A400091838083C801BE01625F7F4FA10120E086
:105A500030E0DCDEC10148D9CE01889645D98BC043
:105A60008E3209F488C0F80182898E3209F483C02D
:105A700023FD81C080E04031510509F481E0F80147
:105A80008483882349F4F7018085873409F073C043
:105A900081858E3709F46FC0D301F7018081803290
:105AA00041F08E2F8E19883011F48EE28D93808113
:105AB0008D933196C557DF4F88819981CB58D0405F
:105AC000E817F90759F71C92F4018081918100973A
:105AD00001F5F20107C08091C00085FFFCCF31962F
